{"contracts/ConfidentialPerpDEXMock.sol":{"ConfidentialPerpDEXMock":{"abi":[{"inputs":[],"stateMutability":"nonpayable","type":"constructor"},{"anonymous":false,"inputs":[{"indexed":true,"internalType":"address","name":"user","type":"address"},{"indexed":false,"internalType":"uint256","name":"amount","type":"uint256"}],"name":"BalanceDeposited","type":"event"},{"anonymous":false,"inputs":[{"indexed":true,"internalType":"address","name":"trader","type":"address"},{"indexed":true,"internalType":"bytes32","name":"positionId","type":"bytes32"}],"name":"LiquidationTriggered","type":"event"},{"anonymous":false,"inputs":[{"indexed":true,"internalType":"uint256","name":"orderId1","type":"uint256"},{"indexed":true,"internalType":"uint256","name":"orderId2","type":"uint256"}],"name":"OrderMatched","type":"event"},{"anonymous":false,"inputs":[{"indexed":true,"internalType":"address","name":"trader","type":"address"},{"indexed":true,"internalType":"uint256","name":"orderId","type":"uint256"},{"indexed":false,"internalType":"bool","name":"isLong","type":"bool"}],"name":"OrderPlaced","type":"event"},{"anonymous":false,"inputs":[{"indexed":true,"internalType":"address","name":"trader","type":"address"},{"indexed":true,"internalType":"bytes32","name":"positionId","type":"bytes32"}],"name":"PositionClosed","type":"event"},{"anonymous":false,"inputs":[{"indexed":true,"internalType":"address","name":"trader","type":"address"},{"indexed":true,"internalType":"bytes32","name":"positionId","type":"bytes32"},{"indexed":false,"internalType":"bool","name":"isLong","type":"bool"}],"name":"PositionOpened","type":"event"},{"anonymous":false,"inputs":[{"indexed":false,"internalType":"uint256","name":"timestamp","type":"uint256"}],"name":"PriceUpdated","type":"event"},{"inputs":[],"name":"admin","outputs":[{"internalType":"address","name":"","type":"address"}],"stateMutability":"view","type":"function"},{"inputs":[{"internalType":"address","name":"","type":"address"}],"name":"balances","outputs":[{"internalType":"uint256","name":"","type":"uint256"}],"stateMutability":"view","type":"function"},{"inputs":[{"internalType":"address","name":"trader","type":"address"},{"internalType":"bytes32","name":"positionId","type":"bytes32"}],"name":"calculatePnL","outputs":[{"internalType":"uint256","name":"","type":"uint256"}],"stateMutability":"view","type":"function"},{"inputs":[{"internalType":"address","name":"trader","type":"address"},{"internalType":"bytes32","name":"positionId","type":"bytes32"}],"name":"checkLiquidation","outputs":[{"internalType":"bool","name":"","type":"bool"}],"stateMutability":"view","type":"function"},{"inputs":[{"internalType":"bytes32","name":"positionId","type":"bytes32"}],"name":"closePosition","outputs":[],"stateMutability":"nonpayable","type":"function"},{"inputs":[{"internalType":"bytes","name":"encryptedAmount","type":"bytes"}],"name":"deposit","outputs":[],"stateMutability":"nonpayable","type":"function"},{"inputs":[],"name":"fundingRate","outputs":[{"internalType":"uint256","name":"","type":"uint256"}],"stateMutability":"view","type":"function"},{"inputs":[],"name":"getBalance","outputs":[{"internalType":"uint256","name":"","type":"uint256"}],"stateMutability":"view","type":"function"},{"inputs":[],"name":"getOraclePrice","outputs":[{"internalType":"uint256","name":"","type":"uint256"}],"stateMutability":"view","type":"function"},{"inputs":[],"name":"getOrderBookSize","outputs":[{"internalType":"uint256","name":"","type":"uint256"}],"stateMutability":"view","type":"function"},{"inputs":[{"internalType":"address","name":"user","type":"address"}],"name":"getUserPositions","outputs":[{"internalType":"bytes32[]","name":"","type":"bytes32[]"}],"stateMutability":"view","type":"function"},{"inputs":[{"internalType":"address","name":"trader","type":"address"},{"internalType":"bytes32","name":"positionId","type":"bytes32"}],"name":"liquidate","outputs":[],"stateMutability":"nonpayable","type":"function"},{"inputs":[],"name":"liquidationThreshold","outputs":[{"internalType":"uint256","name":"","type":"uint256"}],"stateMutability":"view","type":"function"},{"inputs":[{"internalType":"uint256","name":"value","type":"uint256"}],"name":"mockEncrypt","outputs":[{"internalType":"bytes","name":"","type":"bytes"}],"stateMutability":"pure","type":"function"},{"inputs":[{"internalType":"bytes","name":"encSize","type":"bytes"},{"internalType":"uint8","name":"leverage","type":"uint8"},{"internalType":"bool","name":"isLong","type":"bool"}],"name":"openPosition","outputs":[{"internalType":"bytes32","name":"positionId","type":"bytes32"}],"stateMutability":"nonpayable","type":"function"},{"inputs":[],"name":"oraclePrice","outputs":[{"internalType":"uint256","name":"","type":"uint256"}],"stateMutability":"view","type":"function"},{"inputs":[{"internalType":"uint256","name":"","type":"uint256"}],"name":"orderBook","outputs":[{"internalType":"uint256","name":"price","type":"uint256"},{"internalType":"uint256","name":"size","type":"uint256"},{"internalType":"address","name":"trader","type":"address"},{"internalType":"bool","name":"isLong","type":"bool"},{"internalType":"bool","name":"isFilled","type":"bool"},{"internalType":"uint256","name":"timestamp","type":"uint256"}],"stateMutability":"view","type":"function"},{"inputs":[{"internalType":"bytes","name":"encPrice","type":"bytes"},{"internalType":"bytes","name":"encSize","type":"bytes"},{"internalType":"bool","name":"isLong","type":"bool"}],"name":"placeOrder","outputs":[{"internalType":"uint256","name":"orderId","type":"uint256"}],"stateMutability":"nonpayable","type":"function"},{"inputs":[{"internalType":"address","name":"","type":"address"},{"internalType":"bytes32","name":"","type":"bytes32"}],"name":"positions","outputs":[{"internalType":"uint256","name":"size","type":"uint256"},{"internalType":"uint256","name":"entryPrice","type":"uint256"},{"internalType":"uint256","name":"collateral","type":"uint256"},{"internalType":"uint8","name":"leverage","type":"uint8"},{"internalType":"bool","name":"isLong","type":"bool"},{"internalType":"uint256","name":"timestamp","type":"uint256"},{"internalType":"bool","name":"isOpen","type":"bool"}],"stateMutability":"view","type":"function"},{"inputs":[{"internalType":"bytes","name":"encNewPrice","type":"bytes"}],"name":"updateOraclePrice","outputs":[],"stateMutability":"nonpayable","type":"function"},{"inputs":[{"internalType":"address","name":"","type":"address"},{"internalType":"uint256","name":"","type":"uint256"}],"name":"userPositionIds","outputs":[{"internalType":"bytes32","name":"","type":"bytes32"}],"stateMutability":"view","type":"function"}],"evm":{"bytecode":{"linkReferences":{},"object":"608060405234801561000f575f80fd5b50600780546001600160a01b031916331790556101f4600555600a600655624c4b40600455611284806100415f395ff3fe608060405234801561000f575f80fd5b5060043610610132575f3560e01c8063668aa824116100b4578063a20b6e3411610079578063a20b6e34146102db578063a61f94d71461032b578063ac41b3c41461034b578063e54a2ad51461035e578063f851a44014610371578063fef1cacf1461039c575f80fd5b8063668aa82414610291578063796da7af1461029a57806379c81bb4146102a25780637b6eb9b6146102b557806398b1e06a146102c8575f80fd5b806334176a6d116100fa57806334176a6d146101c35780633671fd1b146102575780633af8c7a61461026a5780634031234c1461027f57806341d3c84c14610288575f80fd5b806312065fe014610136578063162eb497146101595780631a3352c11461017c57806327e235e3146101845780632a6bc2dd146101a3575b5f80fd5b335f908152602081905260409020545b6040519081526020015b60405180910390f35b61016c610167366004610ee5565b6103af565b6040519015158152602001610150565b600354610146565b610146610192366004610f0d565b5f6020819052908152604090205481565b6101b66101b1366004610f0d565b61045f565b6040516101509190610f26565b61021c6101d1366004610ee5565b600160208181525f938452604080852090915291835291208054918101546002820154600383015460048401546005909401549293919260ff80831693610100909304811692911687565b6040805197885260208801969096529486019390935260ff90911660608501521515608084015260a0830152151560c082015260e001610150565b610146610265366004611015565b6104c8565b61027d610278366004610ee5565b6106c5565b005b61014660055481565b61014660065481565b61014660045481565b600454610146565b6101466102b0366004611076565b6107e8565b6101466102c3366004610ee5565b610992565b61027d6102d63660046110dc565b6109bd565b6102ee6102e9366004611116565b610a28565b6040805196875260208701959095526001600160a01b039093169385019390935215156060840152901515608083015260a082015260c001610150565b61033e610339366004611116565b610a7f565b604051610150919061112d565b61027d6103593660046110dc565b610aaa565b61027d61036c366004611116565b610b33565b600754610384906001600160a01b031681565b6040516001600160a01b039091168152602001610150565b6101466103aa366004610ee5565b610bf4565b6001600160a01b0382165f9081526001602090815260408083208484529091528120600581015460ff166103fe5760405162461bcd60e51b81526004016103f590611179565b60405180910390fd5b60045481545f9161040e916111b8565b90505f61041b8686610bf4565b90505f81846002015461042e91906111cf565b90505f61043d826127106111b8565b90505f6005548561044e91906111b8565b909110955050505050505b92915050565b6001600160a01b0381165f908152600260209081526040918290208054835181840281018401909452808452606093928301828280156104bc57602002820191905f5260205f20905b8154815260200190600101908083116104a8575b50505050509050919050565b5f806104d385610cb4565b90505f600454826104e491906111b8565b90505f6104f460ff8716836111e2565b335f9081526020819052604090205490915081111561054c5760405162461bcd60e51b8152602060048201526014602482015273496e73756666696369656e742062616c616e636560601b60448201526064016103f5565b335f908152602081905260408120805483929061056a908490611201565b90915550506040516bffffffffffffffffffffffff193360601b1660208201524260348201526054810184905260740160408051601f19818403018152828252805160209182012060e0840183528684526004805485840190815285850187815260ff808e16606089019081528d151560808a019081524260a08b01908152600160c08c01818152335f818152838d528d81208c82528d528d81209e518f5598518e84015596516002808f0191909155945160038e018054955115156101000261ffff1990961691909716179390931790945551958a019590955593516005909801805498151560ff19999099169890981790975580825291845284812080549687018155815292909220909301839055905191955085917f761688f14f2d336ba0b52a896ededce7920428f44050e6d67d2e9b0ebe598739906106b390891515815260200190565b60405180910390a35050509392505050565b6001600160a01b0382165f9081526001602090815260408083208484529091529020600581015460ff1661070b5760405162461bcd60e51b81526004016103f590611179565b5f61071684846103af565b9050806107655760405162461bcd60e51b815260206004820152601960248201527f506f736974696f6e206e6f74206c6971756964617461626c650000000000000060448201526064016103f5565b60058201805460ff1916905560028201545f9061078490600a906111e2565b335f908152602081905260408120805492935083929091906107a79084906111cf565b909155505060405184906001600160a01b038716907f2643a5f218f8f97b4c35c7306389e96173aa522f6754611b9fbf1f1ca554fd15905f90a35050505050565b5f806107f385610cb4565b90505f6107ff85610cb4565b6040805160c0810182528481526020810183815233928201928352871515606083019081525f608084018181524260a08601908152600380546001818101835594829052965160049097027fc2575a0e9e593c00f959f8c92f12db2869c3395a3b0502d05e2516446f71f85b81019790975594517fc2575a0e9e593c00f959f8c92f12db2869c3395a3b0502d05e2516446f71f85c87015595517fc2575a0e9e593c00f959f8c92f12db2869c3395a3b0502d05e2516446f71f85d86018054945192511515600160a81b0260ff60a81b19931515600160a01b026001600160a81b03199096166001600160a01b03939093169290921794909417919091161790915592517fc2575a0e9e593c00f959f8c92f12db2869c3395a3b0502d05e2516446f71f85e909201919091555491925061093891611201565b925082336001600160a01b03167f852c3458d5df136ad3b1704fcc50ad64bbfaa24ffa2e8b38b970fbaeb43e1dfd86604051610978911515815260200190565b60405180910390a361098983610d78565b50509392505050565b6002602052815f5260405f2081815481106109ab575f80fd5b905f5260205f20015f91509150505481565b5f6109c782610cb4565b335f908152602081905260408120805492935083929091906109ea9084906111cf565b90915550506040515f815233907f35127daa9a364433b8c0088167a66055c055f07c5aca9b104d84c51bd7a367de9060200160405180910390a25050565b60038181548110610a37575f80fd5b5f9182526020909120600490910201805460018201546002830154600390930154919350916001600160a01b0381169160ff600160a01b8304811692600160a81b9004169086565b606081604051602001610a9491815260200190565b6040516020818303038152906040529050919050565b6007546001600160a01b03163314610af15760405162461bcd60e51b815260206004820152600a60248201526927b7363c9030b236b4b760b11b60448201526064016103f5565b610afa81610cb4565b6004556040514281527f66cbca4f3c64fecf1dcb9ce094abcf7f68c3450a1d4e3a8e917dd621edb4ebe09060200160405180910390a150565b335f9081526001602090815260408083208484529091529020600581015460ff16610b705760405162461bcd60e51b81526004016103f590611179565b5f610b7b3384610bf4565b90505f818360020154610b8e91906111cf565b335f90815260208190526040812080549293508392909190610bb19084906111cf565b909155505060058301805460ff19169055604051849033907f45c62ca9327bbe0ab86f70af294dc21161fc9b8b4c543858d0c387751cfbaf1b905f90a350505050565b6001600160a01b0382165f9081526001602090815260408083208484529091528120600581015460ff16610c3a5760405162461bcd60e51b81526004016103f590611179565b60038101545f90610100900460ff1615610c7c5781600101546004541115610c75578160010154600454610c6e9190611201565b9050610c9f565b505f610c9f565b60045482600101541115610c9c576004548260010154610c6e9190611201565b505f5b8154610cab90826111b8565b95945050505050565b5f81515f03610cc457505f919050565b602082511015610d6f576040805160208082528183019092525f916020820181803683370190505090505f5b8351811015610d5e57838181518110610d0b57610d0b611214565b602001015160f81c60f81b828286516020610d269190611201565b610d3091906111cf565b81518110610d4057610d40611214565b60200101906001600160f81b03191690815f1a905350600101610cf0565b50610d6881611228565b9392505050565b61045982611228565b5f60038281548110610d8c57610d8c611214565b905f5260205f20906004020190505f5b600354811015610ec557808314610ebd575f60038281548110610dc157610dc1611214565b905f5260205f20906004020190508260020160149054906101000a900460ff1615158160020160149054906101000a900460ff16151503610e025750610ebd565b6002810154600160a81b900460ff1680610e2757506002830154600160a81b900460ff165b15610e325750610ebd565b60028301545f90600160a01b900460ff1615610e545750805483541015610e5c565b508054835411155b8015610eba5760028481018054600160a81b60ff60a81b1991821681179092559184018054909216179055604051839086907f6adc2ec93a1a7ab0ae570b1912c9aafd71adebbc9d2b87e26647230a54f0d0b8905f90a35050505050565b50505b600101610d9c565b505050565b80356001600160a01b0381168114610ee0575f80fd5b919050565b5f8060408385031215610ef6575f80fd5b610eff83610eca565b946020939093013593505050565b5f60208284031215610f1d575f80fd5b610d6882610eca565b602080825282518282018190525f9190848201906040850190845b81811015610f5d57835183529284019291840191600101610f41565b50909695505050505050565b634e487b7160e01b5f52604160045260245ffd5b5f82601f830112610f8c575f80fd5b813567ffffffffffffffff80821115610fa757610fa7610f69565b604051601f8301601f19908116603f01168101908282118183101715610fcf57610fcf610f69565b81604052838152866020858801011115610fe7575f80fd5b836020870160208301375f602085830101528094505050505092915050565b80358015158114610ee0575f80fd5b5f805f60608486031215611027575f80fd5b833567ffffffffffffffff81111561103d575f80fd5b61104986828701610f7d565b935050602084013560ff8116811461105f575f80fd5b915061106d60408501611006565b90509250925092565b5f805f60608486031215611088575f80fd5b833567ffffffffffffffff8082111561109f575f80fd5b6110ab87838801610f7d565b945060208601359150808211156110c0575f80fd5b506110cd86828701610f7d565b92505061106d60408501611006565b5f602082840312156110ec575f80fd5b813567ffffffffffffffff811115611102575f80fd5b61110e84828501610f7d565b949350505050565b5f60208284031215611126575f80fd5b5035919050565b5f602080835283518060208501525f5b818110156111595785810183015185820160400152820161113d565b505f604082860101526040601f19601f8301168501019250505092915050565b6020808252601190820152702837b9b4ba34b7b7103737ba1037b832b760791b604082015260600190565b634e487b7160e01b5f52601160045260245ffd5b8082028115828204841417610459576104596111a4565b80820180821115610459576104596111a4565b5f826111fc57634e487b7160e01b5f52601260045260245ffd5b500490565b81810381811115610459576104596111a4565b634e487b7160e01b5f52603260045260245ffd5b80516020808301519190811015611248575f198160200360031b1b821691505b5091905056fea264697066735822122063075e9f246ad9a52bfe6605e5fcf026f36e184dd9734d3447b07541bf56624364736f6c63430008180033","opcodes":"PUSH1 0x80 PUSH1 0x40 MSTORE CALLVALUE DUP1 ISZERO PUSH2 0xF JUMPI PUSH0 DUP1 REVERT JUMPDEST POP PUSH1 0x7 DUP1 SLOAD PUSH1 0x1 PUSH1 0x1 PUSH1 0xA0 SHL SUB NOT AND CALLER OR SWAP1 SSTORE PUSH2 0x1F4 PUSH1 0x5 SSTORE PUSH1 0xA PUSH1 0x6 SSTORE PUSH3 0x4C4B40 PUSH1 0x4 SSTORE PUSH2 0x1284 DUP1 PUSH2 0x41 PUSH0 CODECOPY PUSH0 RETURN INVALID PUSH1 0x80 PUSH1 0x40 MSTORE CALLVALUE DUP1 ISZERO PUSH2 0xF JUMPI PUSH0 DUP1 REVERT JUMPDEST POP PUSH1 0x4 CALLDATASIZE LT PUSH2 0x132 JUMPI PUSH0 CALLDATALOAD PUSH1 0xE0 SHR DUP1 PUSH4 0x668AA824 GT PUSH2 0xB4 JUMPI DUP1 PUSH4 0xA20B6E34 GT PUSH2 0x79 JUMPI DUP1 PUSH4 0xA20B6E34 EQ PUSH2 0x2DB JUMPI DUP1 PUSH4 0xA61F94D7 EQ PUSH2 0x32B JUMPI DUP1 PUSH4 0xAC41B3C4 EQ PUSH2 0x34B JUMPI DUP1 PUSH4 0xE54A2AD5 EQ PUSH2 0x35E JUMPI DUP1 PUSH4 0xF851A440 EQ PUSH2 0x371 JUMPI DUP1 PUSH4 0xFEF1CACF EQ PUSH2 0x39C JUMPI PUSH0 DUP1 REVERT JUMPDEST DUP1 PUSH4 0x668AA824 EQ PUSH2 0x291 JUMPI DUP1 PUSH4 0x796DA7AF EQ PUSH2 0x29A JUMPI DUP1 PUSH4 0x79C81BB4 EQ PUSH2 0x2A2 JUMPI DUP1 PUSH4 0x7B6EB9B6 EQ PUSH2 0x2B5 JUMPI DUP1 PUSH4 0x98B1E06A EQ PUSH2 0x2C8 JUMPI PUSH0 DUP1 REVERT JUMPDEST DUP1 PUSH4 0x34176A6D GT PUSH2 0xFA JUMPI DUP1 PUSH4 0x34176A6D EQ PUSH2 0x1C3 JUMPI DUP1 PUSH4 0x3671FD1B EQ PUSH2 0x257 JUMPI DUP1 PUSH4 0x3AF8C7A6 EQ PUSH2 0x26A JUMPI DUP1 PUSH4 0x4031234C EQ PUSH2 0x27F JUMPI DUP1 PUSH4 0x41D3C84C EQ PUSH2 0x288 JUMPI PUSH0 DUP1 REVERT JUMPDEST DUP1 PUSH4 0x12065FE0 EQ PUSH2 0x136 JUMPI DUP1 PUSH4 0x162EB497 EQ PUSH2 0x159 JUMPI DUP1 PUSH4 0x1A3352C1 EQ PUSH2 0x17C JUMPI DUP1 PUSH4 0x27E235E3 EQ PUSH2 0x184 JUMPI DUP1 PUSH4 0x2A6BC2DD EQ PUSH2 0x1A3 JUMPI JUMPDEST PUSH0 DUP1 REVERT JUMPDEST CALLER PUSH0 SWAP1 DUP2 MSTORE PUSH1 0x20 DUP2 SWAP1 MSTORE PUSH1 0x40 SWAP1 KECCAK256 SLOAD JUMPDEST PUSH1 0x40 MLOAD SWAP1 DUP2 MSTORE PUSH1 0x20 ADD JUMPDEST PUSH1 0x40 MLOAD DUP1 SWAP2 SUB SWAP1 RETURN JUMPDEST PUSH2 0x16C PUSH2 0x167 CALLDATASIZE PUSH1 0x4 PUSH2 0xEE5 JUMP JUMPDEST PUSH2 0x3AF JUMP JUMPDEST PUSH1 0x40 MLOAD SWAP1 ISZERO ISZERO DUP2 MSTORE PUSH1 0x20 ADD PUSH2 0x150 JUMP JUMPDEST PUSH1 0x3 SLOAD PUSH2 0x146 JUMP JUMPDEST PUSH2 0x146 PUSH2 0x192 CALLDATASIZE PUSH1 0x4 PUSH2 0xF0D JUMP JUMPDEST PUSH0 PUSH1 0x20 DUP2 SWAP1 MSTORE SWAP1 DUP2 MSTORE PUSH1 0x40 SWAP1 KECCAK256 SLOAD DUP2 JUMP JUMPDEST PUSH2 0x1B6 PUSH2 0x1B1 CALLDATASIZE PUSH1 0x4 PUSH2 0xF0D JUMP JUMPDEST PUSH2 0x45F JUMP JUMPDEST PUSH1 0x40 MLOAD PUSH2 0x150 SWAP2 SWAP1 PUSH2 0xF26 JUMP JUMPDEST PUSH2 0x21C PUSH2 0x1D1 CALLDATASIZE PUSH1 0x4 PUSH2 0xEE5 JUMP JUMPDEST PUSH1 0x1 PUSH1 0x20 DUP2 DUP2 MSTORE PUSH0 SWAP4 DUP5 MSTORE PUSH1 0x40 DUP1 DUP6 KECCAK256 SWAP1 SWAP2 MSTORE SWAP2 DUP4 MSTORE SWAP2 KECCAK256 DUP1 SLOAD SWAP2 DUP2 ADD SLOAD PUSH1 0x2 DUP3 ADD SLOAD PUSH1 0x3 DUP4 ADD SLOAD PUSH1 0x4 DUP5 ADD SLOAD PUSH1 0x5 SWAP1 SWAP5 ADD SLOAD SWAP3 SWAP4 SWAP2 SWAP3 PUSH1 0xFF DUP1 DUP4 AND SWAP4 PUSH2 0x100 SWAP1 SWAP4 DIV DUP2 AND SWAP3 SWAP2 AND DUP8 JUMP JUMPDEST PUSH1 0x40 DUP1 MLOAD SWAP8 DUP9 MSTORE PUSH1 0x20 DUP9 ADD SWAP7 SWAP1 SWAP7 MSTORE SWAP5 DUP7 ADD SWAP4 SWAP1 SWAP4 MSTORE PUSH1 0xFF SWAP1 SWAP2 AND PUSH1 0x60 DUP6 ADD MSTORE ISZERO ISZERO PUSH1 0x80 DUP5 ADD MSTORE PUSH1 0xA0 DUP4 ADD MSTORE ISZERO ISZERO PUSH1 0xC0 DUP3 ADD MSTORE PUSH1 0xE0 ADD PUSH2 0x150 JUMP JUMPDEST PUSH2 0x146 PUSH2 0x265 CALLDATASIZE PUSH1 0x4 PUSH2 0x1015 JUMP JUMPDEST PUSH2 0x4C8 JUMP JUMPDEST PUSH2 0x27D PUSH2 0x278 CALLDATASIZE PUSH1 0x4 PUSH2 0xEE5 JUMP JUMPDEST PUSH2 0x6C5 JUMP JUMPDEST STOP JUMPDEST PUSH2 0x146 PUSH1 0x5 SLOAD DUP2 JUMP JUMPDEST PUSH2 0x146 PUSH1 0x6 SLOAD DUP2 JUMP JUMPDEST PUSH2 0x146 PUSH1 0x4 SLOAD DUP2 JUMP JUMPDEST PUSH1 0x4 SLOAD PUSH2 0x146 JUMP JUMPDEST PUSH2 0x146 PUSH2 0x2B0 CALLDATASIZE PUSH1 0x4 PUSH2 0x1076 JUMP JUMPDEST PUSH2 0x7E8 JUMP JUMPDEST PUSH2 0x146 PUSH2 0x2C3 CALLDATASIZE PUSH1 0x4 PUSH2 0xEE5 JUMP JUMPDEST PUSH2 0x992 JUMP JUMPDEST PUSH2 0x27D PUSH2 0x2D6 CALLDATASIZE PUSH1 0x4 PUSH2 0x10DC JUMP JUMPDEST PUSH2 0x9BD JUMP JUMPDEST PUSH2 0x2EE PUSH2 0x2E9 CALLDATASIZE PUSH1 0x4 PUSH2 0x1116 JUMP JUMPDEST PUSH2 0xA28 JUMP JUMPDEST PUSH1 0x40 DUP1 MLOAD SWAP7 DUP8 MSTORE PUSH1 0x20 DUP8 ADD SWAP6 SWAP1 SWAP6 MSTORE PUSH1 0x1 PUSH1 0x1 PUSH1 0xA0 SHL SUB SWAP1 SWAP4 AND SWAP4 DUP6 ADD SWAP4 SWAP1 SWAP4 MSTORE ISZERO ISZERO PUSH1 0x60 DUP5 ADD MSTORE SWAP1 ISZERO ISZERO PUSH1 0x80 DUP4 ADD MSTORE PUSH1 0xA0 DUP3 ADD MSTORE PUSH1 0xC0 ADD PUSH2 0x150 JUMP JUMPDEST PUSH2 0x33E PUSH2 0x339 CALLDATASIZE PUSH1 0x4 PUSH2 0x1116 JUMP JUMPDEST PUSH2 0xA7F JUMP JUMPDEST PUSH1 0x40 MLOAD PUSH2 0x150 SWAP2 SWAP1 PUSH2 0x112D JUMP JUMPDEST PUSH2 0x27D PUSH2 0x359 CALLDATASIZE PUSH1 0x4 PUSH2 0x10DC JUMP JUMPDEST PUSH2 0xAAA JUMP JUMPDEST PUSH2 0x27D PUSH2 0x36C CALLDATASIZE PUSH1 0x4 PUSH2 0x1116 JUMP JUMPDEST PUSH2 0xB33 JUMP JUMPDEST PUSH1 0x7 SLOAD PUSH2 0x384 SWAP1 PUSH1 0x1 PUSH1 0x1 PUSH1 0xA0 SHL SUB AND DUP2 JUMP JUMPDEST PUSH1 0x40 MLOAD PUSH1 0x1 PUSH1 0x1 PUSH1 0xA0 SHL SUB SWAP1 SWAP2 AND DUP2 MSTORE PUSH1 0x20 ADD PUSH2 0x150 JUMP JUMPDEST PUSH2 0x146 PUSH2 0x3AA CALLDATASIZE PUSH1 0x4 PUSH2 0xEE5 JUMP JUMPDEST PUSH2 0xBF4 JUMP JUMPDEST PUSH1 0x1 PUSH1 0x1 PUSH1 0xA0 SHL SUB DUP3 AND PUSH0 SWAP1 DUP2 MSTORE PUSH1 0x1 PUSH1 0x20 SWAP1 DUP2 MSTORE PUSH1 0x40 DUP1 DUP4 KECCAK256 DUP5 DUP5 MSTORE SWAP1 SWAP2 MSTORE DUP2 KECCAK256 PUSH1 0x5 DUP2 ADD SLOAD PUSH1 0xFF AND PUSH2 0x3FE JUMPI PUSH1 0x40 MLOAD PUSH3 0x461BCD PUSH1 0xE5 SHL DUP2 MSTORE PUSH1 0x4 ADD PUSH2 0x3F5 SWAP1 PUSH2 0x1179 JUMP JUMPDEST PUSH1 0x40 MLOAD DUP1 SWAP2 SUB SWAP1 REVERT JUMPDEST PUSH1 0x4 SLOAD DUP2 SLOAD PUSH0 SWAP2 PUSH2 0x40E SWAP2 PUSH2 0x11B8 JUMP JUMPDEST SWAP1 POP PUSH0 PUSH2 0x41B DUP7 DUP7 PUSH2 0xBF4 JUMP JUMPDEST SWAP1 POP PUSH0 DUP2 DUP5 PUSH1 0x2 ADD SLOAD PUSH2 0x42E SWAP2 SWAP1 PUSH2 0x11CF JUMP JUMPDEST SWAP1 POP PUSH0 PUSH2 0x43D DUP3 PUSH2 0x2710 PUSH2 0x11B8 JUMP JUMPDEST SWAP1 POP PUSH0 PUSH1 0x5 SLOAD DUP6 PUSH2 0x44E SWAP2 SWAP1 PUSH2 0x11B8 JUMP JUMPDEST SWAP1 SWAP2 LT SWAP6 POP POP POP POP POP POP JUMPDEST SWAP3 SWAP2 POP POP JUMP JUMPDEST PUSH1 0x1 PUSH1 0x1 PUSH1 0xA0 SHL SUB DUP2 AND PUSH0 SWAP1 DUP2 MSTORE PUSH1 0x2 PUSH1 0x20 SWAP1 DUP2 MSTORE PUSH1 0x40 SWAP2 DUP3 SWAP1 KECCAK256 DUP1 SLOAD DUP4 MLOAD DUP2 DUP5 MUL DUP2 ADD DUP5 ADD SWAP1 SWAP5 MSTORE DUP1 DUP5 MSTORE PUSH1 0x60 SWAP4 SWAP3 DUP4 ADD DUP3 DUP3 DUP1 ISZERO PUSH2 0x4BC JUMPI PUSH1 0x20 MUL DUP3 ADD SWAP2 SWAP1 PUSH0 MSTORE PUSH1 0x20 PUSH0 KECCAK256 SWAP1 JUMPDEST DUP2 SLOAD DUP2 MSTORE PUSH1 0x20 ADD SWAP1 PUSH1 0x1 ADD SWAP1 DUP1 DUP4 GT PUSH2 0x4A8 JUMPI JUMPDEST POP POP POP POP POP SWAP1 POP SWAP2 SWAP1 POP JUMP JUMPDEST PUSH0 DUP1 PUSH2 0x4D3 DUP6 PUSH2 0xCB4 JUMP JUMPDEST SWAP1 POP PUSH0 PUSH1 0x4 SLOAD DUP3 PUSH2 0x4E4 SWAP2 SWAP1 PUSH2 0x11B8 JUMP JUMPDEST SWAP1 POP PUSH0 PUSH2 0x4F4 PUSH1 0xFF DUP8 AND DUP4 PUSH2 0x11E2 JUMP JUMPDEST CALLER PUSH0 SWAP1 DUP2 MSTORE PUSH1 0x20 DUP2 SWAP1 MSTORE PUSH1 0x40 SWAP1 KECCAK256 SLOAD SWAP1 SWAP2 POP DUP2 GT ISZERO PUSH2 0x54C JUMPI PUSH1 0x40 MLOAD PUSH3 0x461BCD PUSH1 0xE5 SHL DUP2 MSTORE PUSH1 0x20 PUSH1 0x4 DUP3 ADD MSTORE PUSH1 0x14 PUSH1 0x24 DUP3 ADD MSTORE PUSH20 0x496E73756666696369656E742062616C616E6365 PUSH1 0x60 SHL PUSH1 0x44 DUP3 ADD MSTORE PUSH1 0x64 ADD PUSH2 0x3F5 JUMP JUMPDEST CALLER PUSH0 SWAP1 DUP2 MSTORE PUSH1 0x20 DUP2 SWAP1 MSTORE PUSH1 0x40 DUP2 KECCAK256 DUP1 SLOAD DUP4 SWAP3 SWAP1 PUSH2 0x56A SWAP1 DUP5 SWAP1 PUSH2 0x1201 JUMP JUMPDEST SWAP1 SWAP2 SSTORE POP POP PUSH1 0x40 MLOAD PUSH12 0xFFFFFFFFFFFFFFFFFFFFFFFF NOT CALLER PUSH1 0x60 SHL AND PUSH1 0x20 DUP3 ADD MSTORE TIMESTAMP PUSH1 0x34 DUP3 ADD MSTORE PUSH1 0x54 DUP2 ADD DUP5 SWAP1 MSTORE PUSH1 0x74 ADD PUSH1 0x40 DUP1 MLOAD PUSH1 0x1F NOT DUP2 DUP5 SUB ADD DUP2 MSTORE DUP3 DUP3 MSTORE DUP1 MLOAD PUSH1 0x20 SWAP2 DUP3 ADD KECCAK256 PUSH1 0xE0 DUP5 ADD DUP4 MSTORE DUP7 DUP5 MSTORE PUSH1 0x4 DUP1 SLOAD DUP6 DUP5 ADD SWAP1 DUP2 MSTORE DUP6 DUP6 ADD DUP8 DUP2 MSTORE PUSH1 0xFF DUP1 DUP15 AND PUSH1 0x60 DUP10 ADD SWAP1 DUP2 MSTORE DUP14 ISZERO ISZERO PUSH1 0x80 DUP11 ADD SWAP1 DUP2 MSTORE TIMESTAMP PUSH1 0xA0 DUP12 ADD SWAP1 DUP2 MSTORE PUSH1 0x1 PUSH1 0xC0 DUP13 ADD DUP2 DUP2 MSTORE CALLER PUSH0 DUP2 DUP2 MSTORE DUP4 DUP14 MSTORE DUP14 DUP2 KECCAK256 DUP13 DUP3 MSTORE DUP14 MSTORE DUP14 DUP2 KECCAK256 SWAP15 MLOAD DUP16 SSTORE SWAP9 MLOAD DUP15 DUP5 ADD SSTORE SWAP7 MLOAD PUSH1 0x2 DUP1 DUP16 ADD SWAP2 SWAP1 SWAP2 SSTORE SWAP5 MLOAD PUSH1 0x3 DUP15 ADD DUP1 SLOAD SWAP6 MLOAD ISZERO ISZERO PUSH2 0x100 MUL PUSH2 0xFFFF NOT SWAP1 SWAP7 AND SWAP2 SWAP1 SWAP8 AND OR SWAP4 SWAP1 SWAP4 OR SWAP1 SWAP5 SSTORE MLOAD SWAP6 DUP11 ADD SWAP6 SWAP1 SWAP6 SSTORE SWAP4 MLOAD PUSH1 0x5 SWAP1 SWAP9 ADD DUP1 SLOAD SWAP9 ISZERO ISZERO PUSH1 0xFF NOT SWAP10 SWAP1 SWAP10 AND SWAP9 SWAP1 SWAP9 OR SWAP1 SWAP8 SSTORE DUP1 DUP3 MSTORE SWAP2 DUP5 MSTORE DUP5 DUP2 KECCAK256 DUP1 SLOAD SWAP7 DUP8 ADD DUP2 SSTORE DUP2 MSTORE SWAP3 SWAP1 SWAP3 KECCAK256 SWAP1 SWAP4 ADD DUP4 SWAP1 SSTORE SWAP1 MLOAD SWAP2 SWAP6 POP DUP6 SWAP2 PUSH32 0x761688F14F2D336BA0B52A896EDEDCE7920428F44050E6D67D2E9B0EBE598739 SWAP1 PUSH2 0x6B3 SWAP1 DUP10 ISZERO ISZERO DUP2 MSTORE PUSH1 0x20 ADD SWAP1 JUMP JUMPDEST PUSH1 0x40 MLOAD DUP1 SWAP2 SUB SWAP1 LOG3 POP POP POP SWAP4 SWAP3 POP POP POP JUMP JUMPDEST PUSH1 0x1 PUSH1 0x1 PUSH1 0xA0 SHL SUB DUP3 AND PUSH0 SWAP1 DUP2 MSTORE PUSH1 0x1 PUSH1 0x20 SWAP1 DUP2 MSTORE PUSH1 0x40 DUP1 DUP4 KECCAK256 DUP5 DUP5 MSTORE SWAP1 SWAP2 MSTORE SWAP1 KECCAK256 PUSH1 0x5 DUP2 ADD SLOAD PUSH1 0xFF AND PUSH2 0x70B JUMPI PUSH1 0x40 MLOAD PUSH3 0x461BCD PUSH1 0xE5 SHL DUP2 MSTORE PUSH1 0x4 ADD PUSH2 0x3F5 SWAP1 PUSH2 0x1179 JUMP JUMPDEST PUSH0 PUSH2 0x716 DUP5 DUP5 PUSH2 0x3AF JUMP JUMPDEST SWAP1 POP DUP1 PUSH2 0x765 JUMPI PUSH1 0x40 MLOAD PUSH3 0x461BCD PUSH1 0xE5 SHL DUP2 MSTORE PUSH1 0x20 PUSH1 0x4 DUP3 ADD MSTORE PUSH1 0x19 PUSH1 0x24 DUP3 ADD MSTORE PUSH32 0x506F736974696F6E206E6F74206C6971756964617461626C6500000000000000 PUSH1 0x44 DUP3 ADD MSTORE PUSH1 0x64 ADD PUSH2 0x3F5 JUMP JUMPDEST PUSH1 0x5 DUP3 ADD DUP1 SLOAD PUSH1 0xFF NOT AND SWAP1 SSTORE PUSH1 0x2 DUP3 ADD SLOAD PUSH0 SWAP1 PUSH2 0x784 SWAP1 PUSH1 0xA SWAP1 PUSH2 0x11E2 JUMP JUMPDEST CALLER PUSH0 SWAP1 DUP2 MSTORE PUSH1 0x20 DUP2 SWAP1 MSTORE PUSH1 0x40 DUP2 KECCAK256 DUP1 SLOAD SWAP3 SWAP4 POP DUP4 SWAP3 SWAP1 SWAP2 SWAP1 PUSH2 0x7A7 SWAP1 DUP5 SWAP1 PUSH2 0x11CF JUMP JUMPDEST SWAP1 SWAP2 SSTORE POP POP PUSH1 0x40 MLOAD DUP5 SWAP1 PUSH1 0x1 PUSH1 0x1 PUSH1 0xA0 SHL SUB DUP8 AND SWAP1 PUSH32 0x2643A5F218F8F97B4C35C7306389E96173AA522F6754611B9FBF1F1CA554FD15 SWAP1 PUSH0 SWAP1 LOG3 POP POP POP POP POP JUMP JUMPDEST PUSH0 DUP1 PUSH2 0x7F3 DUP6 PUSH2 0xCB4 JUMP JUMPDEST SWAP1 POP PUSH0 PUSH2 0x7FF DUP6 PUSH2 0xCB4 JUMP JUMPDEST PUSH1 0x40 DUP1 MLOAD PUSH1 0xC0 DUP2 ADD DUP3 MSTORE DUP5 DUP2 MSTORE PUSH1 0x20 DUP2 ADD DUP4 DUP2 MSTORE CALLER SWAP3 DUP3 ADD SWAP3 DUP4 MSTORE DUP8 ISZERO ISZERO PUSH1 0x60 DUP4 ADD SWAP1 DUP2 MSTORE PUSH0 PUSH1 0x80 DUP5 ADD DUP2 DUP2 MSTORE TIMESTAMP PUSH1 0xA0 DUP7 ADD SWAP1 DUP2 MSTORE PUSH1 0x3 DUP1 SLOAD PUSH1 0x1 DUP2 DUP2 ADD DUP4 SSTORE SWAP5 DUP3 SWAP1 MSTORE SWAP7 MLOAD PUSH1 0x4 SWAP1 SWAP8 MUL PUSH32 0xC2575A0E9E593C00F959F8C92F12DB2869C3395A3B0502D05E2516446F71F85B DUP2 ADD SWAP8 SWAP1 SWAP8 SSTORE SWAP5 MLOAD PUSH32 0xC2575A0E9E593C00F959F8C92F12DB2869C3395A3B0502D05E2516446F71F85C DUP8 ADD SSTORE SWAP6 MLOAD PUSH32 0xC2575A0E9E593C00F959F8C92F12DB2869C3395A3B0502D05E2516446F71F85D DUP7 ADD DUP1 SLOAD SWAP5 MLOAD SWAP3 MLOAD ISZERO ISZERO PUSH1 0x1 PUSH1 0xA8 SHL MUL PUSH1 0xFF PUSH1 0xA8 SHL NOT SWAP4 ISZERO ISZERO PUSH1 0x1 PUSH1 0xA0 SHL MUL PUSH1 0x1 PUSH1 0x1 PUSH1 0xA8 SHL SUB NOT SWAP1 SWAP7 AND PUSH1 0x1 PUSH1 0x1 PUSH1 0xA0 SHL SUB SWAP4 SWAP1 SWAP4 AND SWAP3 SWAP1 SWAP3 OR SWAP5 SWAP1 SWAP5 OR SWAP2 SWAP1 SWAP2 AND OR SWAP1 SWAP2 SSTORE SWAP3 MLOAD PUSH32 0xC2575A0E9E593C00F959F8C92F12DB2869C3395A3B0502D05E2516446F71F85E SWAP1 SWAP3 ADD SWAP2 SWAP1 SWAP2 SSTORE SLOAD SWAP2 SWAP3 POP PUSH2 0x938 SWAP2 PUSH2 0x1201 JUMP JUMPDEST SWAP3 POP DUP3 CALLER PUSH1 0x1 PUSH1 0x1 PUSH1 0xA0 SHL SUB AND PUSH32 0x852C3458D5DF136AD3B1704FCC50AD64BBFAA24FFA2E8B38B970FBAEB43E1DFD DUP7 PUSH1 0x40 MLOAD PUSH2 0x978 SWAP2 ISZERO ISZERO DUP2 MSTORE PUSH1 0x20 ADD SWAP1 JUMP JUMPDEST PUSH1 0x40 MLOAD DUP1 SWAP2 SUB SWAP1 LOG3 PUSH2 0x989 DUP4 PUSH2 0xD78 JUMP JUMPDEST POP POP SWAP4 SWAP3 POP POP POP JUMP JUMPDEST PUSH1 0x2 PUSH1 0x20 MSTORE DUP2 PUSH0 MSTORE PUSH1 0x40 PUSH0 KECCAK256 DUP2 DUP2 SLOAD DUP2 LT PUSH2 0x9AB JUMPI PUSH0 DUP1 REVERT JUMPDEST SWAP1 PUSH0 MSTORE PUSH1 0x20 PUSH0 KECCAK256 ADD PUSH0 SWAP2 POP SWAP2 POP POP SLOAD DUP2 JUMP JUMPDEST PUSH0 PUSH2 0x9C7 DUP3 PUSH2 0xCB4 JUMP JUMPDEST CALLER PUSH0 SWAP1 DUP2 MSTORE PUSH1 0x20 DUP2 SWAP1 MSTORE PUSH1 0x40 DUP2 KECCAK256 DUP1 SLOAD SWAP3 SWAP4 POP DUP4 SWAP3 SWAP1 SWAP2 SWAP1 PUSH2 0x9EA SWAP1 DUP5 SWAP1 PUSH2 0x11CF JUMP JUMPDEST SWAP1 SWAP2 SSTORE POP POP PUSH1 0x40 MLOAD PUSH0 DUP2 MSTORE CALLER SWAP1 PUSH32 0x35127DAA9A364433B8C0088167A66055C055F07C5ACA9B104D84C51BD7A367DE SWAP1 PUSH1 0x20 ADD PUSH1 0x40 MLOAD DUP1 SWAP2 SUB SWAP1 LOG2 POP POP JUMP JUMPDEST PUSH1 0x3 DUP2 DUP2 SLOAD DUP2 LT PUSH2 0xA37 JUMPI PUSH0 DUP1 REVERT JUMPDEST PUSH0 SWAP2 DUP3 MSTORE PUSH1 0x20 SWAP1 SWAP2 KECCAK256 PUSH1 0x4 SWAP1 SWAP2 MUL ADD DUP1 SLOAD PUSH1 0x1 DUP3 ADD SLOAD PUSH1 0x2 DUP4 ADD SLOAD PUSH1 0x3 SWAP1 SWAP4 ADD SLOAD SWAP2 SWAP4 POP SWAP2 PUSH1 0x1 PUSH1 0x1 PUSH1 0xA0 SHL SUB DUP2 AND SWAP2 PUSH1 0xFF PUSH1 0x1 PUSH1 0xA0 SHL DUP4 DIV DUP2 AND SWAP3 PUSH1 0x1 PUSH1 0xA8 SHL SWAP1 DIV AND SWAP1 DUP7 JUMP JUMPDEST PUSH1 0x60 DUP2 PUSH1 0x40 MLOAD PUSH1 0x20 ADD PUSH2 0xA94 SWAP2 DUP2 MSTORE PUSH1 0x20 ADD SWAP1 JUMP JUMPDEST PUSH1 0x40 MLOAD PUSH1 0x20 DUP2 DUP4 SUB SUB DUP2 MSTORE SWAP1 PUSH1 0x40 MSTORE SWAP1 POP SWAP2 SWAP1 POP JUMP JUMPDEST PUSH1 0x7 SLOAD PUSH1 0x1 PUSH1 0x1 PUSH1 0xA0 SHL SUB AND CALLER EQ PUSH2 0xAF1 JUMPI PUSH1 0x40 MLOAD PUSH3 0x461BCD PUSH1 0xE5 SHL DUP2 MSTORE PUSH1 0x20 PUSH1 0x4 DUP3 ADD MSTORE PUSH1 0xA PUSH1 0x24 DUP3 ADD MSTORE PUSH10 0x27B7363C9030B236B4B7 PUSH1 0xB1 SHL PUSH1 0x44 DUP3 ADD MSTORE PUSH1 0x64 ADD PUSH2 0x3F5 JUMP JUMPDEST PUSH2 0xAFA DUP2 PUSH2 0xCB4 JUMP JUMPDEST PUSH1 0x4 SSTORE PUSH1 0x40 MLOAD TIMESTAMP DUP2 MSTORE PUSH32 0x66CBCA4F3C64FECF1DCB9CE094ABCF7F68C3450A1D4E3A8E917DD621EDB4EBE0 SWAP1 PUSH1 0x20 ADD PUSH1 0x40 MLOAD DUP1 SWAP2 SUB SWAP1 LOG1 POP JUMP JUMPDEST CALLER PUSH0 SWAP1 DUP2 MSTORE PUSH1 0x1 PUSH1 0x20 SWAP1 DUP2 MSTORE PUSH1 0x40 DUP1 DUP4 KECCAK256 DUP5 DUP5 MSTORE SWAP1 SWAP2 MSTORE SWAP1 KECCAK256 PUSH1 0x5 DUP2 ADD SLOAD PUSH1 0xFF AND PUSH2 0xB70 JUMPI PUSH1 0x40 MLOAD PUSH3 0x461BCD PUSH1 0xE5 SHL DUP2 MSTORE PUSH1 0x4 ADD PUSH2 0x3F5 SWAP1 PUSH2 0x1179 JUMP JUMPDEST PUSH0 PUSH2 0xB7B CALLER DUP5 PUSH2 0xBF4 JUMP JUMPDEST SWAP1 POP PUSH0 DUP2 DUP4 PUSH1 0x2 ADD SLOAD PUSH2 0xB8E SWAP2 SWAP1 PUSH2 0x11CF JUMP JUMPDEST CALLER PUSH0 SWAP1 DUP2 MSTORE PUSH1 0x20 DUP2 SWAP1 MSTORE PUSH1 0x40 DUP2 KECCAK256 DUP1 SLOAD SWAP3 SWAP4 POP DUP4 SWAP3 SWAP1 SWAP2 SWAP1 PUSH2 0xBB1 SWAP1 DUP5 SWAP1 PUSH2 0x11CF JUMP JUMPDEST SWAP1 SWAP2 SSTORE POP POP PUSH1 0x5 DUP4 ADD DUP1 SLOAD PUSH1 0xFF NOT AND SWAP1 SSTORE PUSH1 0x40 MLOAD DUP5 SWAP1 CALLER SWAP1 PUSH32 0x45C62CA9327BBE0AB86F70AF294DC21161FC9B8B4C543858D0C387751CFBAF1B SWAP1 PUSH0 SWAP1 LOG3 POP POP POP POP JUMP JUMPDEST PUSH1 0x1 PUSH1 0x1 PUSH1 0xA0 SHL SUB DUP3 AND PUSH0 SWAP1 DUP2 MSTORE PUSH1 0x1 PUSH1 0x20 SWAP1 DUP2 MSTORE PUSH1 0x40 DUP1 DUP4 KECCAK256 DUP5 DUP5 MSTORE SWAP1 SWAP2 MSTORE DUP2 KECCAK256 PUSH1 0x5 DUP2 ADD SLOAD PUSH1 0xFF AND PUSH2 0xC3A JUMPI PUSH1 0x40 MLOAD PUSH3 0x461BCD PUSH1 0xE5 SHL DUP2 MSTORE PUSH1 0x4 ADD PUSH2 0x3F5 SWAP1 PUSH2 0x1179 JUMP JUMPDEST PUSH1 0x3 DUP2 ADD SLOAD PUSH0 SWAP1 PUSH2 0x100 SWAP1 DIV PUSH1 0xFF AND ISZERO PUSH2 0xC7C JUMPI DUP2 PUSH1 0x1 ADD SLOAD PUSH1 0x4 SLOAD GT ISZERO PUSH2 0xC75 JUMPI DUP2 PUSH1 0x1 ADD SLOAD PUSH1 0x4 SLOAD PUSH2 0xC6E SWAP2 SWAP1 PUSH2 0x1201 JUMP JUMPDEST SWAP1 POP PUSH2 0xC9F JUMP JUMPDEST POP PUSH0 PUSH2 0xC9F JUMP JUMPDEST PUSH1 0x4 SLOAD DUP3 PUSH1 0x1 ADD SLOAD GT ISZERO PUSH2 0xC9C JUMPI PUSH1 0x4 SLOAD DUP3 PUSH1 0x1 ADD SLOAD PUSH2 0xC6E SWAP2 SWAP1 PUSH2 0x1201 JUMP JUMPDEST POP PUSH0 JUMPDEST DUP2 SLOAD PUSH2 0xCAB SWAP1 DUP3 PUSH2 0x11B8 JUMP JUMPDEST SWAP6 SWAP5 POP POP POP POP POP JUMP JUMPDEST PUSH0 DUP2 MLOAD PUSH0 SUB PUSH2 0xCC4 JUMPI POP PUSH0 SWAP2 SWAP1 POP JUMP JUMPDEST PUSH1 0x20 DUP3 MLOAD LT ISZERO PUSH2 0xD6F JUMPI PUSH1 0x40 DUP1 MLOAD PUSH1 0x20 DUP1 DUP3 MSTORE DUP2 DUP4 ADD SWAP1 SWAP3 MSTORE PUSH0 SWAP2 PUSH1 0x20 DUP3 ADD DUP2 DUP1 CALLDATASIZE DUP4 CALLDATACOPY ADD SWAP1 POP POP SWAP1 POP PUSH0 JUMPDEST DUP4 MLOAD DUP2 LT ISZERO PUSH2 0xD5E JUMPI DUP4 DUP2 DUP2 MLOAD DUP2 LT PUSH2 0xD0B JUMPI PUSH2 0xD0B PUSH2 0x1214 JUMP JUMPDEST PUSH1 0x20 ADD ADD MLOAD PUSH1 0xF8 SHR PUSH1 0xF8 SHL DUP3 DUP3 DUP7 MLOAD PUSH1 0x20 PUSH2 0xD26 SWAP2 SWAP1 PUSH2 0x1201 JUMP JUMPDEST PUSH2 0xD30 SWAP2 SWAP1 PUSH2 0x11CF JUMP JUMPDEST DUP2 MLOAD DUP2 LT PUSH2 0xD40 JUMPI PUSH2 0xD40 PUSH2 0x1214 JUMP JUMPDEST PUSH1 0x20 ADD ADD SWAP1 PUSH1 0x1 PUSH1 0x1 PUSH1 0xF8 SHL SUB NOT AND SWAP1 DUP2 PUSH0 BYTE SWAP1 MSTORE8 POP PUSH1 0x1 ADD PUSH2 0xCF0 JUMP JUMPDEST POP PUSH2 0xD68 DUP2 PUSH2 0x1228 JUMP JUMPDEST SWAP4 SWAP3 POP POP POP JUMP JUMPDEST PUSH2 0x459 DUP3 PUSH2 0x1228 JUMP JUMPDEST PUSH0 PUSH1 0x3 DUP3 DUP2 SLOAD DUP2 LT PUSH2 0xD8C JUMPI PUSH2 0xD8C PUSH2 0x1214 JUMP JUMPDEST SWAP1 PUSH0 MSTORE PUSH1 0x20 PUSH0 KECCAK256 SWAP1 PUSH1 0x4 MUL ADD SWAP1 POP PUSH0 JUMPDEST PUSH1 0x3 SLOAD DUP2 LT ISZERO PUSH2 0xEC5 JUMPI DUP1 DUP4 EQ PUSH2 0xEBD JUMPI PUSH0 PUSH1 0x3 DUP3 DUP2 SLOAD DUP2 LT PUSH2 0xDC1 JUMPI PUSH2 0xDC1 PUSH2 0x1214 JUMP JUMPDEST SWAP1 PUSH0 MSTORE PUSH1 0x20 PUSH0 KECCAK256 SWAP1 PUSH1 0x4 MUL ADD SWAP1 POP DUP3 PUSH1 0x2 ADD PUSH1 0x14 SWAP1 SLOAD SWAP1 PUSH2 0x100 EXP SWAP1 DIV PUSH1 0xFF AND ISZERO ISZERO DUP2 PUSH1 0x2 ADD PUSH1 0x14 SWAP1 SLOAD SWAP1 PUSH2 0x100 EXP SWAP1 DIV PUSH1 0xFF AND ISZERO ISZERO SUB PUSH2 0xE02 JUMPI POP PUSH2 0xEBD JUMP JUMPDEST PUSH1 0x2 DUP2 ADD SLOAD PUSH1 0x1 PUSH1 0xA8 SHL SWAP1 DIV PUSH1 0xFF AND DUP1 PUSH2 0xE27 JUMPI POP PUSH1 0x2 DUP4 ADD SLOAD PUSH1 0x1 PUSH1 0xA8 SHL SWAP1 DIV PUSH1 0xFF AND JUMPDEST ISZERO PUSH2 0xE32 JUMPI POP PUSH2 0xEBD JUMP JUMPDEST PUSH1 0x2 DUP4 ADD SLOAD PUSH0 SWAP1 PUSH1 0x1 PUSH1 0xA0 SHL SWAP1 DIV PUSH1 0xFF AND ISZERO PUSH2 0xE54 JUMPI POP DUP1 SLOAD DUP4 SLOAD LT ISZERO PUSH2 0xE5C JUMP JUMPDEST POP DUP1 SLOAD DUP4 SLOAD GT ISZERO JUMPDEST DUP1 ISZERO PUSH2 0xEBA JUMPI PUSH1 0x2 DUP5 DUP2 ADD DUP1 SLOAD PUSH1 0x1 PUSH1 0xA8 SHL PUSH1 0xFF PUSH1 0xA8 SHL NOT SWAP2 DUP3 AND DUP2 OR SWAP1 SWAP3 SSTORE SWAP2 DUP5 ADD DUP1 SLOAD SWAP1 SWAP3 AND OR SWAP1 SSTORE PUSH1 0x40 MLOAD DUP4 SWAP1 DUP7 SWAP1 PUSH32 0x6ADC2EC93A1A7AB0AE570B1912C9AAFD71ADEBBC9D2B87E26647230A54F0D0B8 SWAP1 PUSH0 SWAP1 LOG3 POP POP POP POP POP JUMP JUMPDEST POP POP JUMPDEST PUSH1 0x1 ADD PUSH2 0xD9C JUMP JUMPDEST POP POP POP JUMP JUMPDEST DUP1 CALLDATALOAD PUSH1 0x1 PUSH1 0x1 PUSH1 0xA0 SHL SUB DUP2 AND DUP2 EQ PUSH2 0xEE0 JUMPI PUSH0 DUP1 REVERT JUMPDEST SWAP2 SWAP1 POP JUMP JUMPDEST PUSH0 DUP1 PUSH1 0x40 DUP4 DUP6 SUB SLT ISZERO PUSH2 0xEF6 JUMPI PUSH0 DUP1 REVERT JUMPDEST PUSH2 0xEFF DUP4 PUSH2 0xECA JUMP JUMPDEST SWAP5 PUSH1 0x20 SWAP4 SWAP1 SWAP4 ADD CALLDATALOAD SWAP4 POP POP POP JUMP JUMPDEST PUSH0 PUSH1 0x20 DUP3 DUP5 SUB SLT ISZERO PUSH2 0xF1D JUMPI PUSH0 DUP1 REVERT JUMPDEST PUSH2 0xD68 DUP3 PUSH2 0xECA JUMP JUMPDEST PUSH1 0x20 DUP1 DUP3 MSTORE DUP3 MLOAD DUP3 DUP3 ADD DUP2 SWAP1 MSTORE PUSH0 SWAP2 SWAP1 DUP5 DUP3 ADD SWAP1 PUSH1 0x40 DUP6 ADD SWAP1 DUP5 JUMPDEST DUP2 DUP2 LT ISZERO PUSH2 0xF5D JUMPI DUP4 MLOAD DUP4 MSTORE SWAP3 DUP5 ADD SWAP3 SWAP2 DUP5 ADD SWAP2 PUSH1 0x1 ADD PUSH2 0xF41 JUMP JUMPDEST POP SWAP1 SWAP7 SWAP6 POP POP POP POP POP POP JUMP JUMPDEST PUSH4 0x4E487B71 PUSH1 0xE0 SHL PUSH0 MSTORE PUSH1 0x41 PUSH1 0x4 MSTORE PUSH1 0x24 PUSH0 REVERT JUMPDEST PUSH0 DUP3 PUSH1 0x1F DUP4 ADD SLT PUSH2 0xF8C JUMPI PUSH0 DUP1 REVERT JUMPDEST DUP2 CALLDATALOAD PUSH8 0xFFFFFFFFFFFFFFFF DUP1 DUP3 GT ISZERO PUSH2 0xFA7 JUMPI PUSH2 0xFA7 PUSH2 0xF69 JUMP JUMPDEST PUSH1 0x40 MLOAD PUSH1 0x1F DUP4 ADD PUSH1 0x1F NOT SWAP1 DUP2 AND PUSH1 0x3F ADD AND DUP2 ADD SWAP1 DUP3 DUP3 GT DUP2 DUP4 LT OR ISZERO PUSH2 0xFCF JUMPI PUSH2 0xFCF PUSH2 0xF69 JUMP JUMPDEST DUP2 PUSH1 0x40 MSTORE DUP4 DUP2 MSTORE DUP7 PUSH1 0x20 DUP6 DUP9 ADD ADD GT ISZERO PUSH2 0xFE7 JUMPI PUSH0 DUP1 REVERT JUMPDEST DUP4 PUSH1 0x20 DUP8 ADD PUSH1 0x20 DUP4 ADD CALLDATACOPY PUSH0 PUSH1 0x20 DUP6 DUP4 ADD ADD MSTORE DUP1 SWAP5 POP POP POP POP POP SWAP3 SWAP2 POP POP JUMP JUMPDEST DUP1 CALLDATALOAD DUP1 ISZERO ISZERO DUP2 EQ PUSH2 0xEE0 JUMPI PUSH0 DUP1 REVERT JUMPDEST PUSH0 DUP1 PUSH0 PUSH1 0x60 DUP5 DUP7 SUB SLT ISZERO PUSH2 0x1027 JUMPI PUSH0 DUP1 REVERT JUMPDEST DUP4 CALLDATALOAD PUSH8 0xFFFFFFFFFFFFFFFF DUP2 GT ISZERO PUSH2 0x103D JUMPI PUSH0 DUP1 REVERT JUMPDEST PUSH2 0x1049 DUP7 DUP3 DUP8 ADD PUSH2 0xF7D JUMP JUMPDEST SWAP4 POP POP PUSH1 0x20 DUP5 ADD CALLDATALOAD PUSH1 0xFF DUP2 AND DUP2 EQ PUSH2 0x105F JUMPI PUSH0 DUP1 REVERT JUMPDEST SWAP2 POP PUSH2 0x106D PUSH1 0x40 DUP6 ADD PUSH2 0x1006 JUMP JUMPDEST SWAP1 POP SWAP3 POP SWAP3 POP SWAP3 JUMP JUMPDEST PUSH0 DUP1 PUSH0 PUSH1 0x60 DUP5 DUP7 SUB SLT ISZERO PUSH2 0x1088 JUMPI PUSH0 DUP1 REVERT JUMPDEST DUP4 CALLDATALOAD PUSH8 0xFFFFFFFFFFFFFFFF DUP1 DUP3 GT ISZERO PUSH2 0x109F JUMPI PUSH0 DUP1 REVERT JUMPDEST PUSH2 0x10AB DUP8 DUP4 DUP9 ADD PUSH2 0xF7D JUMP JUMPDEST SWAP5 POP PUSH1 0x20 DUP7 ADD CALLDATALOAD SWAP2 POP DUP1 DUP3 GT ISZERO PUSH2 0x10C0 JUMPI PUSH0 DUP1 REVERT JUMPDEST POP PUSH2 0x10CD DUP7 DUP3 DUP8 ADD PUSH2 0xF7D JUMP JUMPDEST SWAP3 POP POP PUSH2 0x106D PUSH1 0x40 DUP6 ADD PUSH2 0x1006 JUMP JUMPDEST PUSH0 PUSH1 0x20 DUP3 DUP5 SUB SLT ISZERO PUSH2 0x10EC JUMPI PUSH0 DUP1 REVERT JUMPDEST DUP2 CALLDATALOAD PUSH8 0xFFFFFFFFFFFFFFFF DUP2 GT ISZERO PUSH2 0x1102 JUMPI PUSH0 DUP1 REVERT JUMPDEST PUSH2 0x110E DUP5 DUP3 DUP6 ADD PUSH2 0xF7D JUMP JUMPDEST SWAP5 SWAP4 POP POP POP POP JUMP JUMPDEST PUSH0 PUSH1 0x20 DUP3 DUP5 SUB SLT ISZERO PUSH2 0x1126 JUMPI PUSH0 DUP1 REVERT JUMPDEST POP CALLDATALOAD SWAP2 SWAP1 POP JUMP JUMPDEST PUSH0 PUSH1 0x20 DUP1 DUP4 MSTORE DUP4 MLOAD DUP1 PUSH1 0x20 DUP6 ADD MSTORE PUSH0 JUMPDEST DUP2 DUP2 LT ISZERO PUSH2 0x1159 JUMPI DUP6 DUP2 ADD DUP4 ADD MLOAD DUP6 DUP3 ADD PUSH1 0x40 ADD MSTORE DUP3 ADD PUSH2 0x113D JUMP JUMPDEST POP PUSH0 PUSH1 0x40 DUP3 DUP7 ADD ADD MSTORE PUSH1 0x40 PUSH1 0x1F NOT PUSH1 0x1F DUP4 ADD AND DUP6 ADD ADD SWAP3 POP POP POP SWAP3 SWAP2 POP POP JUMP JUMPDEST PUSH1 0x20 DUP1 DUP3 MSTORE PUSH1 0x11 SWAP1 DUP3 ADD MSTORE PUSH17 0x2837B9B4BA34B7B7103737BA1037B832B7 PUSH1 0x79 SHL PUSH1 0x40 DUP3 ADD MSTORE PUSH1 0x60 ADD SWAP1 JUMP JUMPDEST PUSH4 0x4E487B71 PUSH1 0xE0 SHL PUSH0 MSTORE PUSH1 0x11 PUSH1 0x4 MSTORE PUSH1 0x24 PUSH0 REVERT JUMPDEST DUP1 DUP3 MUL DUP2 ISZERO DUP3 DUP3 DIV DUP5 EQ OR PUSH2 0x459 JUMPI PUSH2 0x459 PUSH2 0x11A4 JUMP JUMPDEST DUP1 DUP3 ADD DUP1 DUP3 GT ISZERO PUSH2 0x459 JUMPI PUSH2 0x459 PUSH2 0x11A4 JUMP JUMPDEST PUSH0 DUP3 PUSH2 0x11FC JUMPI PUSH4 0x4E487B71 PUSH1 0xE0 SHL PUSH0 MSTORE PUSH1 0x12 PUSH1 0x4 MSTORE PUSH1 0x24 PUSH0 REVERT JUMPDEST POP DIV SWAP1 JUMP JUMPDEST DUP2 DUP2 SUB DUP2 DUP2 GT ISZERO PUSH2 0x459 JUMPI PUSH2 0x459 PUSH2 0x11A4 JUMP JUMPDEST PUSH4 0x4E487B71 PUSH1 0xE0 SHL PUSH0 MSTORE PUSH1 0x32 PUSH1 0x4 MSTORE PUSH1 0x24 PUSH0 REVERT JUMPDEST DUP1 MLOAD PUSH1 0x20 DUP1 DUP4 ADD MLOAD SWAP2 SWAP1 DUP2 LT ISZERO PUSH2 0x1248 JUMPI PUSH0 NOT DUP2 PUSH1 0x20 SUB PUSH1 0x3 SHL SHL DUP3 AND SWAP2 POP JUMPDEST POP SWAP2 SWAP1 POP JUMP INVALID LOG2 PUSH5 0x6970667358 0x22 SLT KECCAK256 PUSH4 0x75E9F24 PUSH11 0xD9A52BFE6605E5FCF026F3 PUSH15 0x184DD9734D3447B07541BF56624364 PUSH20 0x6F6C634300081800330000000000000000000000 "},"methodIdentifiers":{"admin()":"f851a440","balances(address)":"27e235e3","calculatePnL(address,bytes32)":"fef1cacf","checkLiquidation(address,bytes32)":"162eb497","closePosition(bytes32)":"e54a2ad5","deposit(bytes)":"98b1e06a","fundingRate()":"41d3c84c","getBalance()":"12065fe0","getOraclePrice()":"796da7af","getOrderBookSize()":"1a3352c1","getUserPositions(address)":"2a6bc2dd","liquidate(address,bytes32)":"3af8c7a6","liquidationThreshold()":"4031234c","mockEncrypt(uint256)":"a61f94d7","openPosition(bytes,uint8,bool)":"3671fd1b","oraclePrice()":"668aa824","orderBook(uint256)":"a20b6e34","placeOrder(bytes,bytes,bool)":"79c81bb4","positions(address,bytes32)":"34176a6d","updateOraclePrice(bytes)":"ac41b3c4","userPositionIds(address,uint256)":"7b6eb9b6"}}}}}