{
  "_format": "hh-sol-artifact-1",
  "contractName": "ConfidentialPerpDEX",
  "sourceName": "contracts/ConfidentialPerpDEX.sol",
  "abi": [
    {
      "inputs": [],
      "stateMutability": "nonpayable",
      "type": "constructor"
    },
    {
      "anonymous": false,
      "inputs": [
        {
          "indexed": true,
          "internalType": "address",
          "name": "user",
          "type": "address"
        },
        {
          "indexed": false,
          "internalType": "uint256",
          "name": "amount",
          "type": "uint256"
        }
      ],
      "name": "BalanceDeposited",
      "type": "event"
    },
    {
      "anonymous": false,
      "inputs": [
        {
          "indexed": true,
          "internalType": "address",
          "name": "trader",
          "type": "address"
        },
        {
          "indexed": true,
          "internalType": "bytes32",
          "name": "positionId",
          "type": "bytes32"
        }
      ],
      "name": "LiquidationTriggered",
      "type": "event"
    },
    {
      "anonymous": false,
      "inputs": [
        {
          "indexed": true,
          "internalType": "uint256",
          "name": "orderId1",
          "type": "uint256"
        },
        {
          "indexed": true,
          "internalType": "uint256",
          "name": "orderId2",
          "type": "uint256"
        }
      ],
      "name": "OrderMatched",
      "type": "event"
    },
    {
      "anonymous": false,
      "inputs": [
        {
          "indexed": true,
          "internalType": "address",
          "name": "trader",
          "type": "address"
        },
        {
          "indexed": true,
          "internalType": "uint256",
          "name": "orderId",
          "type": "uint256"
        },
        {
          "indexed": false,
          "internalType": "bool",
          "name": "isLong",
          "type": "bool"
        }
      ],
      "name": "OrderPlaced",
      "type": "event"
    },
    {
      "anonymous": false,
      "inputs": [
        {
          "indexed": true,
          "internalType": "address",
          "name": "trader",
          "type": "address"
        },
        {
          "indexed": true,
          "internalType": "bytes32",
          "name": "positionId",
          "type": "bytes32"
        }
      ],
      "name": "PositionClosed",
      "type": "event"
    },
    {
      "anonymous": false,
      "inputs": [
        {
          "indexed": true,
          "internalType": "address",
          "name": "trader",
          "type": "address"
        },
        {
          "indexed": true,
          "internalType": "bytes32",
          "name": "positionId",
          "type": "bytes32"
        },
        {
          "indexed": false,
          "internalType": "bool",
          "name": "isLong",
          "type": "bool"
        }
      ],
      "name": "PositionOpened",
      "type": "event"
    },
    {
      "anonymous": false,
      "inputs": [
        {
          "indexed": false,
          "internalType": "uint256",
          "name": "timestamp",
          "type": "uint256"
        }
      ],
      "name": "PriceUpdated",
      "type": "event"
    },
    {
      "anonymous": false,
      "inputs": [
        {
          "indexed": true,
          "internalType": "address",
          "name": "trader",
          "type": "address"
        },
        {
          "indexed": true,
          "internalType": "bytes32",
          "name": "positionId",
          "type": "bytes32"
        }
      ],
      "name": "StopLossTakeProfitUpdated",
      "type": "event"
    },
    {
      "anonymous": false,
      "inputs": [
        {
          "indexed": true,
          "internalType": "address",
          "name": "trader",
          "type": "address"
        },
        {
          "indexed": true,
          "internalType": "bytes32",
          "name": "positionId",
          "type": "bytes32"
        }
      ],
      "name": "StopLossTriggered",
      "type": "event"
    },
    {
      "anonymous": false,
      "inputs": [
        {
          "indexed": true,
          "internalType": "address",
          "name": "trader",
          "type": "address"
        },
        {
          "indexed": true,
          "internalType": "bytes32",
          "name": "positionId",
          "type": "bytes32"
        }
      ],
      "name": "TakeProfitTriggered",
      "type": "event"
    },
    {
      "inputs": [],
      "name": "admin",
      "outputs": [
        {
          "internalType": "address",
          "name": "",
          "type": "address"
        }
      ],
      "stateMutability": "view",
      "type": "function"
    },
    {
      "inputs": [
        {
          "internalType": "address",
          "name": "trader",
          "type": "address"
        },
        {
          "internalType": "bytes32",
          "name": "positionId",
          "type": "bytes32"
        }
      ],
      "name": "calculatePnL",
      "outputs": [
        {
          "internalType": "euint64",
          "name": "",
          "type": "uint256"
        }
      ],
      "stateMutability": "view",
      "type": "function"
    },
    {
      "inputs": [
        {
          "internalType": "address",
          "name": "trader",
          "type": "address"
        },
        {
          "internalType": "bytes32",
          "name": "positionId",
          "type": "bytes32"
        }
      ],
      "name": "checkLiquidation",
      "outputs": [
        {
          "internalType": "ebool",
          "name": "",
          "type": "uint256"
        }
      ],
      "stateMutability": "view",
      "type": "function"
    },
    {
      "inputs": [
        {
          "internalType": "address",
          "name": "trader",
          "type": "address"
        },
        {
          "internalType": "bytes32",
          "name": "positionId",
          "type": "bytes32"
        }
      ],
      "name": "checkStopLossTakeProfit",
      "outputs": [
        {
          "internalType": "ebool",
          "name": "slTriggered",
          "type": "uint256"
        },
        {
          "internalType": "ebool",
          "name": "tpTriggered",
          "type": "uint256"
        }
      ],
      "stateMutability": "view",
      "type": "function"
    },
    {
      "inputs": [
        {
          "internalType": "bytes32",
          "name": "positionId",
          "type": "bytes32"
        }
      ],
      "name": "closePosition",
      "outputs": [],
      "stateMutability": "nonpayable",
      "type": "function"
    },
    {
      "inputs": [
        {
          "internalType": "bytes",
          "name": "encryptedAmount",
          "type": "bytes"
        }
      ],
      "name": "deposit",
      "outputs": [],
      "stateMutability": "nonpayable",
      "type": "function"
    },
    {
      "inputs": [
        {
          "internalType": "address",
          "name": "",
          "type": "address"
        }
      ],
      "name": "encryptedBalances",
      "outputs": [
        {
          "internalType": "euint64",
          "name": "",
          "type": "uint256"
        }
      ],
      "stateMutability": "view",
      "type": "function"
    },
    {
      "inputs": [],
      "name": "encryptedOraclePrice",
      "outputs": [
        {
          "internalType": "euint64",
          "name": "",
          "type": "uint256"
        }
      ],
      "stateMutability": "view",
      "type": "function"
    },
    {
      "inputs": [
        {
          "internalType": "address",
          "name": "trader",
          "type": "address"
        },
        {
          "internalType": "bytes32",
          "name": "positionId",
          "type": "bytes32"
        }
      ],
      "name": "executeStopLossTakeProfit",
      "outputs": [],
      "stateMutability": "nonpayable",
      "type": "function"
    },
    {
      "inputs": [],
      "name": "fundingRate",
      "outputs": [
        {
          "internalType": "euint64",
          "name": "",
          "type": "uint256"
        }
      ],
      "stateMutability": "view",
      "type": "function"
    },
    {
      "inputs": [],
      "name": "getBalance",
      "outputs": [
        {
          "internalType": "euint64",
          "name": "",
          "type": "uint256"
        }
      ],
      "stateMutability": "view",
      "type": "function"
    },
    {
      "inputs": [],
      "name": "getOraclePrice",
      "outputs": [
        {
          "internalType": "euint64",
          "name": "",
          "type": "uint256"
        }
      ],
      "stateMutability": "view",
      "type": "function"
    },
    {
      "inputs": [],
      "name": "getOrderBookSize",
      "outputs": [
        {
          "internalType": "uint256",
          "name": "",
          "type": "uint256"
        }
      ],
      "stateMutability": "view",
      "type": "function"
    },
    {
      "inputs": [
        {
          "internalType": "address",
          "name": "user",
          "type": "address"
        }
      ],
      "name": "getUserPositions",
      "outputs": [
        {
          "internalType": "bytes32[]",
          "name": "",
          "type": "bytes32[]"
        }
      ],
      "stateMutability": "view",
      "type": "function"
    },
    {
      "inputs": [
        {
          "internalType": "address",
          "name": "trader",
          "type": "address"
        },
        {
          "internalType": "bytes32",
          "name": "positionId",
          "type": "bytes32"
        }
      ],
      "name": "liquidate",
      "outputs": [],
      "stateMutability": "nonpayable",
      "type": "function"
    },
    {
      "inputs": [],
      "name": "liquidationThreshold",
      "outputs": [
        {
          "internalType": "euint64",
          "name": "",
          "type": "uint256"
        }
      ],
      "stateMutability": "view",
      "type": "function"
    },
    {
      "inputs": [
        {
          "internalType": "bytes",
          "name": "encSize",
          "type": "bytes"
        },
        {
          "internalType": "uint8",
          "name": "leverage",
          "type": "uint8"
        },
        {
          "internalType": "bool",
          "name": "isLong",
          "type": "bool"
        },
        {
          "internalType": "bytes",
          "name": "encStopLoss",
          "type": "bytes"
        },
        {
          "internalType": "bytes",
          "name": "encTakeProfit",
          "type": "bytes"
        }
      ],
      "name": "openPosition",
      "outputs": [
        {
          "internalType": "bytes32",
          "name": "positionId",
          "type": "bytes32"
        }
      ],
      "stateMutability": "nonpayable",
      "type": "function"
    },
    {
      "inputs": [
        {
          "internalType": "uint256",
          "name": "",
          "type": "uint256"
        }
      ],
      "name": "orderBook",
      "outputs": [
        {
          "internalType": "euint64",
          "name": "price",
          "type": "uint256"
        },
        {
          "internalType": "euint64",
          "name": "size",
          "type": "uint256"
        },
        {
          "internalType": "address",
          "name": "trader",
          "type": "address"
        },
        {
          "internalType": "bool",
          "name": "isLong",
          "type": "bool"
        },
        {
          "internalType": "bool",
          "name": "isFilled",
          "type": "bool"
        },
        {
          "internalType": "uint256",
          "name": "timestamp",
          "type": "uint256"
        }
      ],
      "stateMutability": "view",
      "type": "function"
    },
    {
      "inputs": [
        {
          "internalType": "bytes",
          "name": "encPrice",
          "type": "bytes"
        },
        {
          "internalType": "bytes",
          "name": "encSize",
          "type": "bytes"
        },
        {
          "internalType": "bool",
          "name": "isLong",
          "type": "bool"
        }
      ],
      "name": "placeOrder",
      "outputs": [
        {
          "internalType": "uint256",
          "name": "orderId",
          "type": "uint256"
        }
      ],
      "stateMutability": "nonpayable",
      "type": "function"
    },
    {
      "inputs": [
        {
          "internalType": "address",
          "name": "",
          "type": "address"
        },
        {
          "internalType": "bytes32",
          "name": "",
          "type": "bytes32"
        }
      ],
      "name": "positions",
      "outputs": [
        {
          "internalType": "euint64",
          "name": "size",
          "type": "uint256"
        },
        {
          "internalType": "euint64",
          "name": "entryPrice",
          "type": "uint256"
        },
        {
          "internalType": "euint64",
          "name": "collateral",
          "type": "uint256"
        },
        {
          "internalType": "uint8",
          "name": "leverage",
          "type": "uint8"
        },
        {
          "internalType": "bool",
          "name": "isLong",
          "type": "bool"
        },
        {
          "internalType": "uint256",
          "name": "timestamp",
          "type": "uint256"
        },
        {
          "internalType": "bool",
          "name": "isOpen",
          "type": "bool"
        },
        {
          "internalType": "euint64",
          "name": "stopLoss",
          "type": "uint256"
        },
        {
          "internalType": "euint64",
          "name": "takeProfit",
          "type": "uint256"
        }
      ],
      "stateMutability": "view",
      "type": "function"
    },
    {
      "inputs": [
        {
          "internalType": "bytes",
          "name": "encNewPrice",
          "type": "bytes"
        }
      ],
      "name": "updateOraclePrice",
      "outputs": [],
      "stateMutability": "nonpayable",
      "type": "function"
    },
    {
      "inputs": [
        {
          "internalType": "bytes32",
          "name": "positionId",
          "type": "bytes32"
        },
        {
          "internalType": "bytes",
          "name": "encStopLoss",
          "type": "bytes"
        },
        {
          "internalType": "bytes",
          "name": "encTakeProfit",
          "type": "bytes"
        }
      ],
      "name": "updateStopLossTakeProfit",
      "outputs": [],
      "stateMutability": "nonpayable",
      "type": "function"
    },
    {
      "inputs": [
        {
          "internalType": "address",
          "name": "",
          "type": "address"
        },
        {
          "internalType": "uint256",
          "name": "",
          "type": "uint256"
        }
      ],
      "name": "userPositionIds",
      "outputs": [
        {
          "internalType": "bytes32",
          "name": "",
          "type": "bytes32"
        }
      ],
      "stateMutability": "view",
      "type": "function"
    }
  ],
  "bytecode": "0x608060405234801562000010575f80fd5b50600780546001600160a01b03191633179055620000306101f462000059565b6005556200003f600a62000059565b60065562000050624c4b4062000059565b6004556200011c565b5f620000678260056200006d565b92915050565b604051631ce2e8d760e31b8152600481018390527fff0000000000000000000000000000000000000000000000000000000000000060f883901b1660248201525f90605d9063e71746b890604401602060405180830381865afa158015620000d7573d5f803e3d5ffd5b505050506040513d601f19601f82011682018060405250810190620000fd919062000104565b9392505050565b5f6020828403121562000115575f80fd5b5051919050565b6119b1806200012a5f395ff3fe608060405234801561000f575f80fd5b5060043610610148575f3560e01c806379c81bb4116100bf578063ac41b3c411610079578063ac41b3c41461035d578063af8d259714610370578063d172d60c14610398578063e54a2ad5146103ab578063f851a440146103be578063fef1cacf146103e9575f80fd5b806379c81bb4146102ae5780637b6eb9b6146102c157806398b1e06a146102d4578063a20b6e34146102e7578063a41402f114610337578063a6aa732c1461034a575f80fd5b80632a6bc2dd116101105780632a6bc2dd146101b257806334176a6d146101d25780633af8c7a61461027f5780634031234c1461029457806341d3c84c1461029d578063796da7af146102a6575f80fd5b806312065fe01461014c5780631257b76f1461016f578063162eb4971461018e5780631a3352c1146101a15780631fc0293b146101a9575b5f80fd5b335f908152602081905260409020545b6040519081526020015b60405180910390f35b61015c61017d366004611567565b5f6020819052908152604090205481565b61015c61019c366004611580565b6103fc565b60035461015c565b61015c60045481565b6101c56101c0366004611567565b6104ba565b60405161016691906115a8565b6102376101e0366004611580565b600160208181525f93845260408085209091529183529120805491810154600282015460038301546004840154600585015460068601546007909601549495939460ff808516956101009095048116949216919089565b60408051998a5260208a01989098529688019590955260ff9093166060870152901515608086015260a0850152151560c084015260e083015261010082015261012001610166565b61029261028d366004611580565b610523565b005b61015c60055481565b61015c60065481565b60045461015c565b61015c6102bc366004611697565b6105ef565b61015c6102cf366004611580565b610799565b6102926102e2366004611706565b6107c4565b6102fa6102f5366004611738565b610850565b6040805196875260208701959095526001600160a01b039093169385019390935215156060840152901515608083015260a082015260c001610166565b61015c61034536600461174f565b6108a7565b610292610358366004611580565b610b1a565b61029261036b366004611706565b610c09565b61038361037e366004611580565b610c92565b60408051928352602083019190915201610166565b6102926103a63660046117fc565b610d5b565b6102926103b9366004611738565b610de6565b6007546103d1906001600160a01b031681565b6040516001600160a01b039091168152602001610166565b61015c6103f7366004611580565b610ea7565b6001600160a01b0382165f9081526001602090815260408083208484529091528120600581015460ff1661044b5760405162461bcd60e51b815260040161044290611864565b60405180910390fd5b5f61045b825f0154600454610f41565b90505f6104688686610ea7565b90505f610479846002015483610f76565b90505f6104908261048b612710610fa4565b610f41565b90505f61049f85600554610f41565b90506104ab8282610fb0565b96505050505050505b92915050565b6001600160a01b0381165f9081526002602090815260409182902080548351818402810184019094528084526060939283018282801561051757602002820191905f5260205f20905b815481526020019060010190808311610503575b50505050509050919050565b6001600160a01b0382165f9081526001602090815260408083208484529091529020600581015460ff166105695760405162461bcd60e51b815260040161044290611864565b60058101805460ff1916905560028101545f9061058790600a610fde565b335f908152602081905260409020549091506105a39082610f76565b335f9081526020819052604080822092909255905184916001600160a01b038716917f2643a5f218f8f97b4c35c7306389e96173aa522f6754611b9fbf1f1ca554fd159190a350505050565b5f806105fa85611004565b90505f61060685611004565b6040805160c0810182528481526020810183815233928201928352871515606083019081525f608084018181524260a08601908152600380546001818101835594829052965160049097027fc2575a0e9e593c00f959f8c92f12db2869c3395a3b0502d05e2516446f71f85b81019790975594517fc2575a0e9e593c00f959f8c92f12db2869c3395a3b0502d05e2516446f71f85c87015595517fc2575a0e9e593c00f959f8c92f12db2869c3395a3b0502d05e2516446f71f85d86018054945192511515600160a81b0260ff60a81b19931515600160a01b026001600160a81b03199096166001600160a01b03939093169290921794909417919091161790915592517fc2575a0e9e593c00f959f8c92f12db2869c3395a3b0502d05e2516446f71f85e909201919091555491925061073f9161188f565b925082336001600160a01b03167f852c3458d5df136ad3b1704fcc50ad64bbfaa24ffa2e8b38b970fbaeb43e1dfd8660405161077f911515815260200190565b60405180910390a361079083611010565b50509392505050565b6002602052815f5260405f2081815481106107b2575f80fd5b905f5260205f20015f91509150505481565b5f6107ce82611004565b335f908152602081905260409020549091508015610804576107f08183610f76565b335f90815260208190526040902055610816565b335f9081526020819052604090208290555b6040515f815233907f35127daa9a364433b8c0088167a66055c055f07c5aca9b104d84c51bd7a367de9060200160405180910390a2505050565b6003818154811061085f575f80fd5b5f9182526020909120600490910201805460018201546002830154600390930154919350916001600160a01b0381169160ff600160a01b8304811692600160a81b9004169086565b5f806108b287611004565b90505f6108be85611004565b90505f6108ca85611004565b90505f6108d984600454610f41565b90505f6108e9828b60ff16610fde565b335f90815260208190526040902054909150610905818361116b565b335f8181526020818152604091829020939093555161094d9242918a910160609390931b6bffffffffffffffffffffffff191683526014830191909152603482015260540190565b60405160208183030381529060405280519060200120965060405180610120016040528087815260200160045481526020018381526020018c60ff1681526020018b151581526020014281526020016001151581526020018681526020018581525060015f336001600160a01b03166001600160a01b031681526020019081526020015f205f8981526020019081526020015f205f820151815f015560208201518160010155604082015181600201556060820151816003015f6101000a81548160ff021916908360ff16021790555060808201518160030160016101000a81548160ff02191690831515021790555060a0820151816004015560c0820151816005015f6101000a81548160ff02191690831515021790555060e08201518160060155610100820151816007015590505060025f336001600160a01b03166001600160a01b031681526020019081526020015f2087908060018154018082558091505060019003905f5260205f20015f909190919091505586336001600160a01b03167f761688f14f2d336ba0b52a896ededce7920428f44050e6d67d2e9b0ebe5987398c604051610b03911515815260200190565b60405180910390a350505050505095945050505050565b6001600160a01b0382165f9081526001602090815260408083208484529091529020600581015460ff16610b605760405162461bcd60e51b815260040161044290611864565b5f80610b6c8585610c92565b915091505f610b7b8686610ea7565b90505f610b8c856002015483610f76565b6001600160a01b0388165f90815260208190526040902054909150610bb19082610f76565b6001600160a01b0388165f818152602081905260408082209390935560058801805460ff19169055915188927f45c62ca9327bbe0ab86f70af294dc21161fc9b8b4c543858d0c387751cfbaf1b91a350505050505050565b6007546001600160a01b03163314610c505760405162461bcd60e51b815260206004820152600a60248201526927b7363c9030b236b4b760b11b6044820152606401610442565b610c5981611004565b6004556040514281527f66cbca4f3c64fecf1dcb9ce094abcf7f68c3450a1d4e3a8e917dd621edb4ebe09060200160405180910390a150565b6001600160a01b0382165f9081526001602090815260408083208484529091528120600581015482919060ff16610cdb5760405162461bcd60e51b815260040161044290611864565b6003810154610100900460ff1615610d0457610cfd6004548260060154610fb0565b9250610d17565b610d146004548260060154611199565b92505b6003810154610100900460ff1615610d4057610d396004548260070154611199565b9150610d53565b610d506004548260070154610fb0565b91505b509250929050565b335f9081526001602090815260408083208684529091529020600581015460ff16610d985760405162461bcd60e51b815260040161044290611864565b610da183611004565b6006820155610daf82611004565b6007820155604051849033907f693de235a6bcc5a3bf632239b55eef260b75d68d15b298d33ec6b78041ec0e53905f90a350505050565b335f9081526001602090815260408083208484529091529020600581015460ff16610e235760405162461bcd60e51b815260040161044290611864565b5f610e2e3384610ea7565b90505f610e3f836002015483610f76565b335f90815260208190526040902054909150610e5b9082610f76565b335f818152602081905260408082209390935560058601805460ff19169055915186927f45c62ca9327bbe0ab86f70af294dc21161fc9b8b4c543858d0c387751cfbaf1b91a350505050565b6001600160a01b0382165f9081526001602090815260408083208484529091528120600581015460ff16610eed5760405162461bcd60e51b815260040161044290611864565b60038101545f90610100900460ff1615610f1857610f11600454836001015461116b565b9050610f2b565b610f28826001015460045461116b565b90505b610f3881835f0154610f41565b95945050505050565b5f82610f5357610f505f610fa4565b92505b81610f6457610f615f610fa4565b91505b610f6f83835f6111c7565b9392505050565b5f82610f8857610f855f610fa4565b92505b81610f9957610f965f610fa4565b91505b610f6f83835f611244565b5f6104b4826005611282565b5f82610fc257610fbf5f610fa4565b92505b81610fd357610fd05f610fa4565b91505b610f6f83835f6112f7565b5f82610ff057610fed5f610fa4565b92505b610f6f838367ffffffffffffffff16611335565b5f6104b48260056113ac565b5f60038281548110611024576110246118ae565b905f5260205f20906004020190505f5b6003548110156111665780831461115e575f60038281548110611059576110596118ae565b905f5260205f20906004020190508260020160149054906101000a900460ff1615158160020160149054906101000a900460ff1615150361109a575061115e565b6002810154600160a81b900460ff16806110bf57506002830154600160a81b900460ff165b156110ca575061115e565b60028301545f90600160a01b900460ff16156110f557835482546110ee91906113f8565b9050611106565b835482546111039190611426565b90505b60028481018054600160a81b60ff60a81b1991821681179092559184018054909216179055604051839086907f6adc2ec93a1a7ab0ae570b1912c9aafd71adebbc9d2b87e26647230a54f0d0b8905f90a35050505050565b600101611034565b505050565b5f8261117d5761117a5f610fa4565b92505b8161118e5761118b5f610fa4565b91505b610f6f83835f611454565b5f826111ab576111a85f610fa4565b92505b816111bc576111b95f610fa4565b91505b610f6f83835f611492565b5f8082156111da5750600160f81b6111dd565b505f5b60405163816d57d360e01b8152605d9063816d57d390611205908890889086906004016118c2565b602060405180830381865afa158015611220573d5f803e3d5ffd5b505050506040513d601f19601f82011682018060405250810190610f3891906118e2565b5f8082156112575750600160f81b61125a565b505f5b60405163f953e42760e01b8152605d9063f953e42790611205908890889086906004016118c2565b604051631ce2e8d760e31b8152600481018390526001600160f81b031960f883901b1660248201525f90605d9063e71746b890604401602060405180830381865afa1580156112d3573d5f803e3d5ffd5b505050506040513d601f19601f82011682018060405250810190610f6f91906118e2565b5f80821561130a5750600160f81b61130d565b505f5b604051639675211f60e01b8152605d90639675211f90611205908890889086906004016118c2565b6040516336cdd31b60e01b81525f90600160f81b90605d906336cdd31b90611365908790879086906004016118c2565b602060405180830381865afa158015611380573d5f803e3d5ffd5b505050506040513d601f19601f820116820180604052508101906113a491906118e2565b949350505050565b5f80838360f81b6040516020016113c492919061191b565b60408051601f1981840301815290829052630964a5d960e31b82529150605d90634b252ec890611365908490600401611949565b5f8261140a576114075f610fa4565b92505b8161141b576114185f610fa4565b91505b610f6f83835f6114d0565b5f82611438576114355f610fa4565b92505b81611449576114465f610fa4565b91505b610f6f83835f61150e565b5f8082156114675750600160f81b61146a565b505f5b604051638c14cc2160e01b8152605d90638c14cc2190611205908890889086906004016118c2565b5f8082156114a55750600160f81b6114a8565b505f5b604051631f31e28560e11b8152605d90633e63c50a90611205908890889086906004016118c2565b5f8082156114e35750600160f81b6114e6565b505f5b60405163052896f160e01b8152605d9063052896f190611205908890889086906004016118c2565b5f8082156115215750600160f81b611524565b505f5b6040516334a6d7b960e11b8152605d9063694daf7290611205908890889086906004016118c2565b80356001600160a01b0381168114611562575f80fd5b919050565b5f60208284031215611577575f80fd5b610f6f8261154c565b5f8060408385031215611591575f80fd5b61159a8361154c565b946020939093013593505050565b602080825282518282018190525f9190848201906040850190845b818110156115df578351835292840192918401916001016115c3565b50909695505050505050565b634e487b7160e01b5f52604160045260245ffd5b5f82601f83011261160e575f80fd5b813567ffffffffffffffff80821115611629576116296115eb565b604051601f8301601f19908116603f01168101908282118183101715611651576116516115eb565b81604052838152866020858801011115611669575f80fd5b836020870160208301375f602085830101528094505050505092915050565b80358015158114611562575f80fd5b5f805f606084860312156116a9575f80fd5b833567ffffffffffffffff808211156116c0575f80fd5b6116cc878388016115ff565b945060208601359150808211156116e1575f80fd5b506116ee868287016115ff565b9250506116fd60408501611688565b90509250925092565b5f60208284031215611716575f80fd5b813567ffffffffffffffff81111561172c575f80fd5b6113a4848285016115ff565b5f60208284031215611748575f80fd5b5035919050565b5f805f805f60a08688031215611763575f80fd5b853567ffffffffffffffff8082111561177a575f80fd5b61178689838a016115ff565b96506020880135915060ff8216821461179d575f80fd5b8195506117ac60408901611688565b945060608801359150808211156117c1575f80fd5b6117cd89838a016115ff565b935060808801359150808211156117e2575f80fd5b506117ef888289016115ff565b9150509295509295909350565b5f805f6060848603121561180e575f80fd5b83359250602084013567ffffffffffffffff8082111561182c575f80fd5b611838878388016115ff565b9350604086013591508082111561184d575f80fd5b5061185a868287016115ff565b9150509250925092565b6020808252601190820152702837b9b4ba34b7b7103737ba1037b832b760791b604082015260600190565b818103818111156104b457634e487b7160e01b5f52601160045260245ffd5b634e487b7160e01b5f52603260045260245ffd5b92835260208301919091526001600160f81b031916604082015260600190565b5f602082840312156118f2575f80fd5b5051919050565b5f5b838110156119135781810151838201526020016118fb565b50505f910152565b5f835161192c8184602088016118f9565b6001600160f81b0319939093169190920190815260010192915050565b602081525f82518060208401526119678160408501602087016118f9565b601f01601f1916919091016040019291505056fea2646970667358221220965fc6ed8a98d47e42aba64c9ac21579a5b39a5144e00251551d20ab30dd9bb764736f6c63430008180033",
  "linkReferences": {},
  "deployedLinkReferences": {}
}