{
  "_format": "hh-sol-artifact-1",
  "contractName": "ConfidentialPerpDEXMock",
  "sourceName": "contracts/ConfidentialPerpDEXMock.sol",
  "abi": [
    {
      "inputs": [],
      "stateMutability": "nonpayable",
      "type": "constructor"
    },
    {
      "anonymous": false,
      "inputs": [
        {
          "indexed": true,
          "internalType": "address",
          "name": "user",
          "type": "address"
        },
        {
          "indexed": false,
          "internalType": "uint256",
          "name": "amount",
          "type": "uint256"
        }
      ],
      "name": "BalanceDeposited",
      "type": "event"
    },
    {
      "anonymous": false,
      "inputs": [
        {
          "indexed": true,
          "internalType": "address",
          "name": "trader",
          "type": "address"
        },
        {
          "indexed": true,
          "internalType": "bytes32",
          "name": "positionId",
          "type": "bytes32"
        }
      ],
      "name": "LiquidationTriggered",
      "type": "event"
    },
    {
      "anonymous": false,
      "inputs": [
        {
          "indexed": true,
          "internalType": "uint256",
          "name": "orderId1",
          "type": "uint256"
        },
        {
          "indexed": true,
          "internalType": "uint256",
          "name": "orderId2",
          "type": "uint256"
        }
      ],
      "name": "OrderMatched",
      "type": "event"
    },
    {
      "anonymous": false,
      "inputs": [
        {
          "indexed": true,
          "internalType": "address",
          "name": "trader",
          "type": "address"
        },
        {
          "indexed": true,
          "internalType": "uint256",
          "name": "orderId",
          "type": "uint256"
        },
        {
          "indexed": false,
          "internalType": "bool",
          "name": "isLong",
          "type": "bool"
        }
      ],
      "name": "OrderPlaced",
      "type": "event"
    },
    {
      "anonymous": false,
      "inputs": [
        {
          "indexed": true,
          "internalType": "address",
          "name": "trader",
          "type": "address"
        },
        {
          "indexed": true,
          "internalType": "bytes32",
          "name": "positionId",
          "type": "bytes32"
        }
      ],
      "name": "PositionClosed",
      "type": "event"
    },
    {
      "anonymous": false,
      "inputs": [
        {
          "indexed": true,
          "internalType": "address",
          "name": "trader",
          "type": "address"
        },
        {
          "indexed": true,
          "internalType": "bytes32",
          "name": "positionId",
          "type": "bytes32"
        },
        {
          "indexed": false,
          "internalType": "bool",
          "name": "isLong",
          "type": "bool"
        }
      ],
      "name": "PositionOpened",
      "type": "event"
    },
    {
      "anonymous": false,
      "inputs": [
        {
          "indexed": false,
          "internalType": "uint256",
          "name": "timestamp",
          "type": "uint256"
        }
      ],
      "name": "PriceUpdated",
      "type": "event"
    },
    {
      "inputs": [],
      "name": "admin",
      "outputs": [
        {
          "internalType": "address",
          "name": "",
          "type": "address"
        }
      ],
      "stateMutability": "view",
      "type": "function"
    },
    {
      "inputs": [
        {
          "internalType": "address",
          "name": "",
          "type": "address"
        }
      ],
      "name": "balances",
      "outputs": [
        {
          "internalType": "uint256",
          "name": "",
          "type": "uint256"
        }
      ],
      "stateMutability": "view",
      "type": "function"
    },
    {
      "inputs": [
        {
          "internalType": "address",
          "name": "trader",
          "type": "address"
        },
        {
          "internalType": "bytes32",
          "name": "positionId",
          "type": "bytes32"
        }
      ],
      "name": "calculatePnL",
      "outputs": [
        {
          "internalType": "uint256",
          "name": "",
          "type": "uint256"
        }
      ],
      "stateMutability": "view",
      "type": "function"
    },
    {
      "inputs": [
        {
          "internalType": "address",
          "name": "trader",
          "type": "address"
        },
        {
          "internalType": "bytes32",
          "name": "positionId",
          "type": "bytes32"
        }
      ],
      "name": "checkLiquidation",
      "outputs": [
        {
          "internalType": "bool",
          "name": "",
          "type": "bool"
        }
      ],
      "stateMutability": "view",
      "type": "function"
    },
    {
      "inputs": [
        {
          "internalType": "bytes32",
          "name": "positionId",
          "type": "bytes32"
        }
      ],
      "name": "closePosition",
      "outputs": [],
      "stateMutability": "nonpayable",
      "type": "function"
    },
    {
      "inputs": [
        {
          "internalType": "bytes",
          "name": "encryptedAmount",
          "type": "bytes"
        }
      ],
      "name": "deposit",
      "outputs": [],
      "stateMutability": "nonpayable",
      "type": "function"
    },
    {
      "inputs": [],
      "name": "fundingRate",
      "outputs": [
        {
          "internalType": "uint256",
          "name": "",
          "type": "uint256"
        }
      ],
      "stateMutability": "view",
      "type": "function"
    },
    {
      "inputs": [],
      "name": "getBalance",
      "outputs": [
        {
          "internalType": "uint256",
          "name": "",
          "type": "uint256"
        }
      ],
      "stateMutability": "view",
      "type": "function"
    },
    {
      "inputs": [],
      "name": "getOraclePrice",
      "outputs": [
        {
          "internalType": "uint256",
          "name": "",
          "type": "uint256"
        }
      ],
      "stateMutability": "view",
      "type": "function"
    },
    {
      "inputs": [],
      "name": "getOrderBookSize",
      "outputs": [
        {
          "internalType": "uint256",
          "name": "",
          "type": "uint256"
        }
      ],
      "stateMutability": "view",
      "type": "function"
    },
    {
      "inputs": [
        {
          "internalType": "address",
          "name": "user",
          "type": "address"
        }
      ],
      "name": "getUserPositions",
      "outputs": [
        {
          "internalType": "bytes32[]",
          "name": "",
          "type": "bytes32[]"
        }
      ],
      "stateMutability": "view",
      "type": "function"
    },
    {
      "inputs": [
        {
          "internalType": "address",
          "name": "trader",
          "type": "address"
        },
        {
          "internalType": "bytes32",
          "name": "positionId",
          "type": "bytes32"
        }
      ],
      "name": "liquidate",
      "outputs": [],
      "stateMutability": "nonpayable",
      "type": "function"
    },
    {
      "inputs": [],
      "name": "liquidationThreshold",
      "outputs": [
        {
          "internalType": "uint256",
          "name": "",
          "type": "uint256"
        }
      ],
      "stateMutability": "view",
      "type": "function"
    },
    {
      "inputs": [
        {
          "internalType": "uint256",
          "name": "value",
          "type": "uint256"
        }
      ],
      "name": "mockEncrypt",
      "outputs": [
        {
          "internalType": "bytes",
          "name": "",
          "type": "bytes"
        }
      ],
      "stateMutability": "pure",
      "type": "function"
    },
    {
      "inputs": [
        {
          "internalType": "bytes",
          "name": "encSize",
          "type": "bytes"
        },
        {
          "internalType": "uint8",
          "name": "leverage",
          "type": "uint8"
        },
        {
          "internalType": "bool",
          "name": "isLong",
          "type": "bool"
        }
      ],
      "name": "openPosition",
      "outputs": [
        {
          "internalType": "bytes32",
          "name": "positionId",
          "type": "bytes32"
        }
      ],
      "stateMutability": "nonpayable",
      "type": "function"
    },
    {
      "inputs": [],
      "name": "oraclePrice",
      "outputs": [
        {
          "internalType": "uint256",
          "name": "",
          "type": "uint256"
        }
      ],
      "stateMutability": "view",
      "type": "function"
    },
    {
      "inputs": [
        {
          "internalType": "uint256",
          "name": "",
          "type": "uint256"
        }
      ],
      "name": "orderBook",
      "outputs": [
        {
          "internalType": "uint256",
          "name": "price",
          "type": "uint256"
        },
        {
          "internalType": "uint256",
          "name": "size",
          "type": "uint256"
        },
        {
          "internalType": "address",
          "name": "trader",
          "type": "address"
        },
        {
          "internalType": "bool",
          "name": "isLong",
          "type": "bool"
        },
        {
          "internalType": "bool",
          "name": "isFilled",
          "type": "bool"
        },
        {
          "internalType": "uint256",
          "name": "timestamp",
          "type": "uint256"
        }
      ],
      "stateMutability": "view",
      "type": "function"
    },
    {
      "inputs": [
        {
          "internalType": "bytes",
          "name": "encPrice",
          "type": "bytes"
        },
        {
          "internalType": "bytes",
          "name": "encSize",
          "type": "bytes"
        },
        {
          "internalType": "bool",
          "name": "isLong",
          "type": "bool"
        }
      ],
      "name": "placeOrder",
      "outputs": [
        {
          "internalType": "uint256",
          "name": "orderId",
          "type": "uint256"
        }
      ],
      "stateMutability": "nonpayable",
      "type": "function"
    },
    {
      "inputs": [
        {
          "internalType": "address",
          "name": "",
          "type": "address"
        },
        {
          "internalType": "bytes32",
          "name": "",
          "type": "bytes32"
        }
      ],
      "name": "positions",
      "outputs": [
        {
          "internalType": "uint256",
          "name": "size",
          "type": "uint256"
        },
        {
          "internalType": "uint256",
          "name": "entryPrice",
          "type": "uint256"
        },
        {
          "internalType": "uint256",
          "name": "collateral",
          "type": "uint256"
        },
        {
          "internalType": "uint8",
          "name": "leverage",
          "type": "uint8"
        },
        {
          "internalType": "bool",
          "name": "isLong",
          "type": "bool"
        },
        {
          "internalType": "uint256",
          "name": "timestamp",
          "type": "uint256"
        },
        {
          "internalType": "bool",
          "name": "isOpen",
          "type": "bool"
        }
      ],
      "stateMutability": "view",
      "type": "function"
    },
    {
      "inputs": [
        {
          "internalType": "bytes",
          "name": "encNewPrice",
          "type": "bytes"
        }
      ],
      "name": "updateOraclePrice",
      "outputs": [],
      "stateMutability": "nonpayable",
      "type": "function"
    },
    {
      "inputs": [
        {
          "internalType": "address",
          "name": "",
          "type": "address"
        },
        {
          "internalType": "uint256",
          "name": "",
          "type": "uint256"
        }
      ],
      "name": "userPositionIds",
      "outputs": [
        {
          "internalType": "bytes32",
          "name": "",
          "type": "bytes32"
        }
      ],
      "stateMutability": "view",
      "type": "function"
    }
  ],
  "bytecode": "0x608060405234801561000f575f80fd5b50600780546001600160a01b031916331790556101f4600555600a600655624c4b40600455611284806100415f395ff3fe608060405234801561000f575f80fd5b5060043610610132575f3560e01c8063668aa824116100b4578063a20b6e3411610079578063a20b6e34146102db578063a61f94d71461032b578063ac41b3c41461034b578063e54a2ad51461035e578063f851a44014610371578063fef1cacf1461039c575f80fd5b8063668aa82414610291578063796da7af1461029a57806379c81bb4146102a25780637b6eb9b6146102b557806398b1e06a146102c8575f80fd5b806334176a6d116100fa57806334176a6d146101c35780633671fd1b146102575780633af8c7a61461026a5780634031234c1461027f57806341d3c84c14610288575f80fd5b806312065fe014610136578063162eb497146101595780631a3352c11461017c57806327e235e3146101845780632a6bc2dd146101a3575b5f80fd5b335f908152602081905260409020545b6040519081526020015b60405180910390f35b61016c610167366004610ee5565b6103af565b6040519015158152602001610150565b600354610146565b610146610192366004610f0d565b5f6020819052908152604090205481565b6101b66101b1366004610f0d565b61045f565b6040516101509190610f26565b61021c6101d1366004610ee5565b600160208181525f938452604080852090915291835291208054918101546002820154600383015460048401546005909401549293919260ff80831693610100909304811692911687565b6040805197885260208801969096529486019390935260ff90911660608501521515608084015260a0830152151560c082015260e001610150565b610146610265366004611015565b6104c8565b61027d610278366004610ee5565b6106c5565b005b61014660055481565b61014660065481565b61014660045481565b600454610146565b6101466102b0366004611076565b6107e8565b6101466102c3366004610ee5565b610992565b61027d6102d63660046110dc565b6109bd565b6102ee6102e9366004611116565b610a28565b6040805196875260208701959095526001600160a01b039093169385019390935215156060840152901515608083015260a082015260c001610150565b61033e610339366004611116565b610a7f565b604051610150919061112d565b61027d6103593660046110dc565b610aaa565b61027d61036c366004611116565b610b33565b600754610384906001600160a01b031681565b6040516001600160a01b039091168152602001610150565b6101466103aa366004610ee5565b610bf4565b6001600160a01b0382165f9081526001602090815260408083208484529091528120600581015460ff166103fe5760405162461bcd60e51b81526004016103f590611179565b60405180910390fd5b60045481545f9161040e916111b8565b90505f61041b8686610bf4565b90505f81846002015461042e91906111cf565b90505f61043d826127106111b8565b90505f6005548561044e91906111b8565b909110955050505050505b92915050565b6001600160a01b0381165f908152600260209081526040918290208054835181840281018401909452808452606093928301828280156104bc57602002820191905f5260205f20905b8154815260200190600101908083116104a8575b50505050509050919050565b5f806104d385610cb4565b90505f600454826104e491906111b8565b90505f6104f460ff8716836111e2565b335f9081526020819052604090205490915081111561054c5760405162461bcd60e51b8152602060048201526014602482015273496e73756666696369656e742062616c616e636560601b60448201526064016103f5565b335f908152602081905260408120805483929061056a908490611201565b90915550506040516bffffffffffffffffffffffff193360601b1660208201524260348201526054810184905260740160408051601f19818403018152828252805160209182012060e0840183528684526004805485840190815285850187815260ff808e16606089019081528d151560808a019081524260a08b01908152600160c08c01818152335f818152838d528d81208c82528d528d81209e518f5598518e84015596516002808f0191909155945160038e018054955115156101000261ffff1990961691909716179390931790945551958a019590955593516005909801805498151560ff19999099169890981790975580825291845284812080549687018155815292909220909301839055905191955085917f761688f14f2d336ba0b52a896ededce7920428f44050e6d67d2e9b0ebe598739906106b390891515815260200190565b60405180910390a35050509392505050565b6001600160a01b0382165f9081526001602090815260408083208484529091529020600581015460ff1661070b5760405162461bcd60e51b81526004016103f590611179565b5f61071684846103af565b9050806107655760405162461bcd60e51b815260206004820152601960248201527f506f736974696f6e206e6f74206c6971756964617461626c650000000000000060448201526064016103f5565b60058201805460ff1916905560028201545f9061078490600a906111e2565b335f908152602081905260408120805492935083929091906107a79084906111cf565b909155505060405184906001600160a01b038716907f2643a5f218f8f97b4c35c7306389e96173aa522f6754611b9fbf1f1ca554fd15905f90a35050505050565b5f806107f385610cb4565b90505f6107ff85610cb4565b6040805160c0810182528481526020810183815233928201928352871515606083019081525f608084018181524260a08601908152600380546001818101835594829052965160049097027fc2575a0e9e593c00f959f8c92f12db2869c3395a3b0502d05e2516446f71f85b81019790975594517fc2575a0e9e593c00f959f8c92f12db2869c3395a3b0502d05e2516446f71f85c87015595517fc2575a0e9e593c00f959f8c92f12db2869c3395a3b0502d05e2516446f71f85d86018054945192511515600160a81b0260ff60a81b19931515600160a01b026001600160a81b03199096166001600160a01b03939093169290921794909417919091161790915592517fc2575a0e9e593c00f959f8c92f12db2869c3395a3b0502d05e2516446f71f85e909201919091555491925061093891611201565b925082336001600160a01b03167f852c3458d5df136ad3b1704fcc50ad64bbfaa24ffa2e8b38b970fbaeb43e1dfd86604051610978911515815260200190565b60405180910390a361098983610d78565b50509392505050565b6002602052815f5260405f2081815481106109ab575f80fd5b905f5260205f20015f91509150505481565b5f6109c782610cb4565b335f908152602081905260408120805492935083929091906109ea9084906111cf565b90915550506040515f815233907f35127daa9a364433b8c0088167a66055c055f07c5aca9b104d84c51bd7a367de9060200160405180910390a25050565b60038181548110610a37575f80fd5b5f9182526020909120600490910201805460018201546002830154600390930154919350916001600160a01b0381169160ff600160a01b8304811692600160a81b9004169086565b606081604051602001610a9491815260200190565b6040516020818303038152906040529050919050565b6007546001600160a01b03163314610af15760405162461bcd60e51b815260206004820152600a60248201526927b7363c9030b236b4b760b11b60448201526064016103f5565b610afa81610cb4565b6004556040514281527f66cbca4f3c64fecf1dcb9ce094abcf7f68c3450a1d4e3a8e917dd621edb4ebe09060200160405180910390a150565b335f9081526001602090815260408083208484529091529020600581015460ff16610b705760405162461bcd60e51b81526004016103f590611179565b5f610b7b3384610bf4565b90505f818360020154610b8e91906111cf565b335f90815260208190526040812080549293508392909190610bb19084906111cf565b909155505060058301805460ff19169055604051849033907f45c62ca9327bbe0ab86f70af294dc21161fc9b8b4c543858d0c387751cfbaf1b905f90a350505050565b6001600160a01b0382165f9081526001602090815260408083208484529091528120600581015460ff16610c3a5760405162461bcd60e51b81526004016103f590611179565b60038101545f90610100900460ff1615610c7c5781600101546004541115610c75578160010154600454610c6e9190611201565b9050610c9f565b505f610c9f565b60045482600101541115610c9c576004548260010154610c6e9190611201565b505f5b8154610cab90826111b8565b95945050505050565b5f81515f03610cc457505f919050565b602082511015610d6f576040805160208082528183019092525f916020820181803683370190505090505f5b8351811015610d5e57838181518110610d0b57610d0b611214565b602001015160f81c60f81b828286516020610d269190611201565b610d3091906111cf565b81518110610d4057610d40611214565b60200101906001600160f81b03191690815f1a905350600101610cf0565b50610d6881611228565b9392505050565b61045982611228565b5f60038281548110610d8c57610d8c611214565b905f5260205f20906004020190505f5b600354811015610ec557808314610ebd575f60038281548110610dc157610dc1611214565b905f5260205f20906004020190508260020160149054906101000a900460ff1615158160020160149054906101000a900460ff16151503610e025750610ebd565b6002810154600160a81b900460ff1680610e2757506002830154600160a81b900460ff165b15610e325750610ebd565b60028301545f90600160a01b900460ff1615610e545750805483541015610e5c565b508054835411155b8015610eba5760028481018054600160a81b60ff60a81b1991821681179092559184018054909216179055604051839086907f6adc2ec93a1a7ab0ae570b1912c9aafd71adebbc9d2b87e26647230a54f0d0b8905f90a35050505050565b50505b600101610d9c565b505050565b80356001600160a01b0381168114610ee0575f80fd5b919050565b5f8060408385031215610ef6575f80fd5b610eff83610eca565b946020939093013593505050565b5f60208284031215610f1d575f80fd5b610d6882610eca565b602080825282518282018190525f9190848201906040850190845b81811015610f5d57835183529284019291840191600101610f41565b50909695505050505050565b634e487b7160e01b5f52604160045260245ffd5b5f82601f830112610f8c575f80fd5b813567ffffffffffffffff80821115610fa757610fa7610f69565b604051601f8301601f19908116603f01168101908282118183101715610fcf57610fcf610f69565b81604052838152866020858801011115610fe7575f80fd5b836020870160208301375f602085830101528094505050505092915050565b80358015158114610ee0575f80fd5b5f805f60608486031215611027575f80fd5b833567ffffffffffffffff81111561103d575f80fd5b61104986828701610f7d565b935050602084013560ff8116811461105f575f80fd5b915061106d60408501611006565b90509250925092565b5f805f60608486031215611088575f80fd5b833567ffffffffffffffff8082111561109f575f80fd5b6110ab87838801610f7d565b945060208601359150808211156110c0575f80fd5b506110cd86828701610f7d565b92505061106d60408501611006565b5f602082840312156110ec575f80fd5b813567ffffffffffffffff811115611102575f80fd5b61110e84828501610f7d565b949350505050565b5f60208284031215611126575f80fd5b5035919050565b5f602080835283518060208501525f5b818110156111595785810183015185820160400152820161113d565b505f604082860101526040601f19601f8301168501019250505092915050565b6020808252601190820152702837b9b4ba34b7b7103737ba1037b832b760791b604082015260600190565b634e487b7160e01b5f52601160045260245ffd5b8082028115828204841417610459576104596111a4565b80820180821115610459576104596111a4565b5f826111fc57634e487b7160e01b5f52601260045260245ffd5b500490565b81810381811115610459576104596111a4565b634e487b7160e01b5f52603260045260245ffd5b80516020808301519190811015611248575f198160200360031b1b821691505b5091905056fea264697066735822122063075e9f246ad9a52bfe6605e5fcf026f36e184dd9734d3447b07541bf56624364736f6c63430008180033",
  "linkReferences": {},
  "deployedLinkReferences": {}
}